{
  "address": "0x5c4989045b1325bc4E9BB035F6cD51D4D1Cb1788",
  "abi": [
    {
      "inputs": [],
      "name": "NoProfit",
      "type": "error"
    },
    {
      "inputs": [],
      "name": "SwapFail",
      "type": "error"
    },
    {
      "anonymous": false,
      "inputs": [
        {
          "indexed": true,
          "internalType": "address",
          "name": "previousOwner",
          "type": "address"
        },
        {
          "indexed": true,
          "internalType": "address",
          "name": "newOwner",
          "type": "address"
        }
      ],
      "name": "OwnershipTransferred",
      "type": "event"
    },
    {
      "inputs": [],
      "name": "ONEINCH_AGGREGATION_ROUTER_V5",
      "outputs": [
        {
          "internalType": "address",
          "name": "",
          "type": "address"
        }
      ],
      "stateMutability": "view",
      "type": "function"
    },
    {
      "inputs": [],
      "name": "UNISWAP_V3_SWAP_ROUTER",
      "outputs": [
        {
          "internalType": "address",
          "name": "",
          "type": "address"
        }
      ],
      "stateMutability": "view",
      "type": "function"
    },
    {
      "inputs": [],
      "name": "VELODROME_V2_POOL_FACTORY",
      "outputs": [
        {
          "internalType": "address",
          "name": "",
          "type": "address"
        }
      ],
      "stateMutability": "view",
      "type": "function"
    },
    {
      "inputs": [],
      "name": "VELODROME_V2_ROUTER",
      "outputs": [
        {
          "internalType": "address",
          "name": "",
          "type": "address"
        }
      ],
      "stateMutability": "view",
      "type": "function"
    },
    {
      "inputs": [
        {
          "internalType": "address",
          "name": "tokenIn",
          "type": "address"
        },
        {
          "internalType": "address",
          "name": "tokenOut",
          "type": "address"
        },
        {
          "internalType": "uint256",
          "name": "amountIn",
          "type": "uint256"
        },
        {
          "internalType": "uint256",
          "name": "minProfit",
          "type": "uint256"
        },
        {
          "internalType": "uint24",
          "name": "uniswapV3Fee",
          "type": "uint24"
        },
        {
          "internalType": "bytes",
          "name": "oneInchData",
          "type": "bytes"
        }
      ],
      "name": "arbitrageOneInchToUniswapV3",
      "outputs": [],
      "stateMutability": "nonpayable",
      "type": "function"
    },
    {
      "inputs": [
        {
          "internalType": "address",
          "name": "tokenIn",
          "type": "address"
        },
        {
          "internalType": "address",
          "name": "tokenOut",
          "type": "address"
        },
        {
          "internalType": "uint256",
          "name": "amountIn",
          "type": "uint256"
        },
        {
          "internalType": "uint256",
          "name": "minProfit",
          "type": "uint256"
        },
        {
          "internalType": "uint24",
          "name": "uniswapV3Fee",
          "type": "uint24"
        },
        {
          "internalType": "bool",
          "name": "velodromeV2Stable",
          "type": "bool"
        }
      ],
      "name": "arbitrageUniswapV3toVelodromeV2",
      "outputs": [],
      "stateMutability": "nonpayable",
      "type": "function"
    },
    {
      "inputs": [
        {
          "internalType": "address",
          "name": "tokenIn",
          "type": "address"
        },
        {
          "internalType": "address",
          "name": "tokenOut",
          "type": "address"
        },
        {
          "internalType": "uint256",
          "name": "amountIn",
          "type": "uint256"
        },
        {
          "internalType": "uint256",
          "name": "minProfit",
          "type": "uint256"
        },
        {
          "internalType": "uint24",
          "name": "uniswapV3Fee",
          "type": "uint24"
        },
        {
          "internalType": "bool",
          "name": "velodromeV2Stable",
          "type": "bool"
        }
      ],
      "name": "arbitrageVelodromeV2toUniswapV3",
      "outputs": [],
      "stateMutability": "nonpayable",
      "type": "function"
    },
    {
      "inputs": [],
      "name": "owner",
      "outputs": [
        {
          "internalType": "address",
          "name": "",
          "type": "address"
        }
      ],
      "stateMutability": "view",
      "type": "function"
    },
    {
      "inputs": [],
      "name": "renounceOwnership",
      "outputs": [],
      "stateMutability": "nonpayable",
      "type": "function"
    },
    {
      "inputs": [
        {
          "internalType": "address",
          "name": "newOwner",
          "type": "address"
        }
      ],
      "name": "transferOwnership",
      "outputs": [],
      "stateMutability": "nonpayable",
      "type": "function"
    },
    {
      "inputs": [
        {
          "internalType": "bytes",
          "name": "path",
          "type": "bytes"
        },
        {
          "internalType": "address",
          "name": "tokenIn",
          "type": "address"
        },
        {
          "internalType": "uint256",
          "name": "amountIn",
          "type": "uint256"
        },
        {
          "internalType": "uint256",
          "name": "minProfit",
          "type": "uint256"
        }
      ],
      "name": "triangularArbitrageUniswapV3",
      "outputs": [],
      "stateMutability": "nonpayable",
      "type": "function"
    },
    {
      "inputs": [
        {
          "internalType": "address[]",
          "name": "tokens",
          "type": "address[]"
        },
        {
          "internalType": "uint256",
          "name": "amountIn",
          "type": "uint256"
        },
        {
          "internalType": "uint256",
          "name": "minProfit",
          "type": "uint256"
        }
      ],
      "name": "triangularArbitrageVelodromeV2",
      "outputs": [],
      "stateMutability": "nonpayable",
      "type": "function"
    },
    {
      "inputs": [
        {
          "internalType": "address",
          "name": "token",
          "type": "address"
        }
      ],
      "name": "withdrawAll",
      "outputs": [],
      "stateMutability": "nonpayable",
      "type": "function"
    }
  ],
  "transactionHash": "0x4d90c9f8c5a121cba0c3342ea2eb48daa11cd204a3fd3f73430a293ee2d41e28",
  "args": [],
  "numDeployments": 2,
  "solcInputHash": "2fad7f2179fb89f91dadf4b380ae9a3a",
  "bytecode": "0x608060405234801561001057600080fd5b5061001a3361001f565b61006f565b600080546001600160a01b038381166001600160a01b0319831681178455604051919092169283917f8be0079c531659141344cd1fd0a4f28419497f9722a3daafe3b4186f6b6457e09190a35050565b6118438061007e6000396000f3fe608060405234801561001057600080fd5b50600436106100cf5760003560e01c80638bb4d7391161008c578063ea182fca11610066578063ea182fca146101a0578063ee408408146101bb578063f2fde38b146101d6578063fa09e630146101e957600080fd5b80638bb4d739146101615780638da5cb5b1461017c578063937b49661461018d57600080fd5b806314b44482146100d457806340024da9146100e9578063552852b914610120578063715018a6146101335780637cedde611461013b5780638123a68d1461014e575b600080fd5b6100e76100e2366004611235565b6101fc565b005b61010473f1046053aa5682b4f9a81b5481394da16be5ff5a81565b6040516001600160a01b03909116815260200160405180910390f35b6100e761012e36600461129f565b61025b565b6100e76102ba565b6100e7610149366004611235565b6102ce565b6100e761015c36600461139e565b61030d565b61010473e592427a0aece92de3edee1f18e0157c0586156481565b6000546001600160a01b0316610104565b6100e761019b366004611478565b610482565b61010473a062ae8a9c5e11aaa026fc2670b0d65ccc8b285881565b610104731111111254eeb25477b68fb85ed929f73a96058281565b6100e76101e4366004611525565b610781565b6100e76101f7366004611525565b6107ff565b6102116001600160a01b038716333087610895565b6000610221878787600086610906565b9050600061023b878984610235898b61155d565b88610b0b565b90506102516001600160a01b0389163383610ca4565b5050505050505050565b6102706001600160a01b038816333088610895565b600061027f8888888686610cd9565b90506000610299888a846102938a8c61155d565b89610b0b565b90506102af6001600160a01b038a163383610ca4565b505050505050505050565b6102c2610ee9565b6102cc6000610f43565b565b6102e36001600160a01b038716333087610895565b60006102f3878787600087610b0b565b9050600061023b878984610307898b61155d565b87610906565b6103226001600160a01b038416333085610895565b60405163095ea7b360e01b815273e592427a0aece92de3edee1f18e0157c058615646004820152602481018390526001600160a01b0384169063095ea7b3906044016020604051808303816000875af1158015610383573d6000803e3d6000fd5b505050506040513d601f19601f820116820180604052508101906103a79190611576565b5060006040518060a00160405280868152602001306001600160a01b0316815260200142815260200184815260200183856103e2919061155d565b905260405163c04b8d5960e01b815290915060009073e592427a0aece92de3edee1f18e0157c058615649063c04b8d59906104219085906004016115e3565b6020604051808303816000875af1158015610440573d6000803e3d6000fd5b505050506040513d601f19601f82011682018060405250810190610464919061163b565b905061047a6001600160a01b0386163383610ca4565b505050505050565b60008360008151811061049757610497611654565b602090810291909101015190506104b96001600160a01b038216333086610895565b60405163095ea7b360e01b815273a062ae8a9c5e11aaa026fc2670b0d65ccc8b28586004820152602481018490526001600160a01b0382169063095ea7b3906044016020604051808303816000875af115801561051a573d6000803e3d6000fd5b505050506040513d601f19601f8201168201806040525081019061053e9190611576565b5060006002855161054f919061166a565b905060008167ffffffffffffffff81111561056c5761056c611357565b6040519080825280602002602001820160405280156105be57816020015b60408051608081018252600080825260208083018290529282018190526060820152825260001990920191018161058a5790505b50905060005b828110156106a4576040518060800160405280888360026105e5919061168c565b815181106105f5576105f5611654565b60200260200101516001600160a01b0316815260200188836002610619919061168c565b61062490600161155d565b8151811061063457610634611654565b60200260200101516001600160a01b0316815260200160001515815260200173f1046053aa5682b4f9a81b5481394da16be5ff5a6001600160a01b031681525082828151811061068657610686611654565b6020026020010181905250808061069c906116a3565b9150506105c4565b50600073a062ae8a9c5e11aaa026fc2670b0d65ccc8b285863cac88ea9876106cc888261155d565b8530426040518663ffffffff1660e01b81526004016106ef9594939291906116bc565b6000604051808303816000875af115801561070e573d6000803e3d6000fd5b505050506040513d6000823e601f3d908101601f19168201604052610736919081019061175e565b90506000816001835161074991906117e4565b8151811061075957610759611654565b602002602001015190506102513382876001600160a01b0316610ca49092919063ffffffff16565b610789610ee9565b6001600160a01b0381166107f35760405162461bcd60e51b815260206004820152602660248201527f4f776e61626c653a206e6577206f776e657220697320746865207a65726f206160448201526564647265737360d01b60648201526084015b60405180910390fd5b6107fc81610f43565b50565b610807610ee9565b6107fc61081c6000546001600160a01b031690565b6040516370a0823160e01b81523060048201526001600160a01b038416906370a0823190602401602060405180830381865afa158015610860573d6000803e3d6000fd5b505050506040513d601f19601f82011682018060405250810190610884919061163b565b6001600160a01b0384169190610ca4565b6040516001600160a01b03808516602483015283166044820152606481018290526109009085906323b872dd60e01b906084015b60408051601f198184030181529190526020810180516001600160e01b03166001600160e01b031990931692909217909152610f93565b50505050565b60405163095ea7b360e01b815273a062ae8a9c5e11aaa026fc2670b0d65ccc8b28586004820152602481018490526000906001600160a01b0387169063095ea7b3906044016020604051808303816000875af115801561096a573d6000803e3d6000fd5b505050506040513d601f19601f8201168201806040525081019061098e9190611576565b50604080516001808252818301909252600091816020015b6040805160808101825260008082526020808301829052928201819052606082015282526000199092019101816109a65790505090506040518060800160405280886001600160a01b03168152602001876001600160a01b03168152602001841515815260200173f1046053aa5682b4f9a81b5481394da16be5ff5a6001600160a01b031681525081600081518110610a4157610a41611654565b602090810291909101015260405163cac88ea960e01b815260009073a062ae8a9c5e11aaa026fc2670b0d65ccc8b28589063cac88ea990610a8e90899089908790309042906004016116bc565b6000604051808303816000875af1158015610aad573d6000803e3d6000fd5b505050506040513d6000823e601f3d908101601f19168201604052610ad5919081019061175e565b90508060018251610ae691906117e4565b81518110610af657610af6611654565b60200260200101519250505095945050505050565b60405163095ea7b360e01b815273e592427a0aece92de3edee1f18e0157c058615646004820152602481018490526000906001600160a01b0387169063095ea7b3906044016020604051808303816000875af1158015610b6f573d6000803e3d6000fd5b505050506040513d601f19601f82011682018060405250810190610b939190611576565b5060408051610100810182526001600160a01b0388811682528781166020830190815262ffffff8681168486019081523060608601908152426080870190815260a087018c815260c088018c8152600060e08a01908152995163414bf38960e01b81529851881660048a0152955187166024890152925190931660448701525184166064860152905160848501525160a48401525160c4830152915190911660e482015273e592427a0aece92de3edee1f18e0157c058615649063414bf38990610104016020604051808303816000875af1158015610c76573d6000803e3d6000fd5b505050506040513d601f19601f82011682018060405250810190610c9a919061163b565b9695505050505050565b6040516001600160a01b038316602482015260448101829052610cd490849063a9059cbb60e01b906064016108c9565b505050565b60405163095ea7b360e01b8152731111111254eeb25477b68fb85ed929f73a9605826004820152602481018490526000906001600160a01b0387169063095ea7b3906044016020604051808303816000875af1158015610d3d573d6000803e3d6000fd5b505050506040513d601f19601f82011682018060405250810190610d619190611576565b506040516370a0823160e01b81523060048201526000906001600160a01b038716906370a0823190602401602060405180830381865afa158015610da9573d6000803e3d6000fd5b505050506040513d601f19601f82011682018060405250810190610dcd919061163b565b90506000731111111254eeb25477b68fb85ed929f73a9605826001600160a01b031660008686604051610e019291906117f7565b60006040518083038185875af1925050503d8060008114610e3e576040519150601f19603f3d011682016040523d82523d6000602084013e610e43565b606091505b5050905080610e65576040516316e128d760e31b815260040160405180910390fd5b6040516370a0823160e01b81523060048201526000906001600160a01b038916906370a0823190602401602060405180830381865afa158015610eac573d6000803e3d6000fd5b505050506040513d601f19601f82011682018060405250810190610ed0919061163b565b9050610edc83826117e4565b9998505050505050505050565b6000546001600160a01b031633146102cc5760405162461bcd60e51b815260206004820181905260248201527f4f776e61626c653a2063616c6c6572206973206e6f7420746865206f776e657260448201526064016107ea565b600080546001600160a01b038381166001600160a01b0319831681178455604051919092169283917f8be0079c531659141344cd1fd0a4f28419497f9722a3daafe3b4186f6b6457e09190a35050565b6000610fe8826040518060400160405280602081526020017f5361666545524332303a206c6f772d6c6576656c2063616c6c206661696c6564815250856001600160a01b03166110689092919063ffffffff16565b90508051600014806110095750808060200190518101906110099190611576565b610cd45760405162461bcd60e51b815260206004820152602a60248201527f5361666545524332303a204552433230206f7065726174696f6e20646964206e6044820152691bdd081cdd58d8d9595960b21b60648201526084016107ea565b6060611077848460008561107f565b949350505050565b6060824710156110e05760405162461bcd60e51b815260206004820152602660248201527f416464726573733a20696e73756666696369656e742062616c616e636520666f6044820152651c8818d85b1b60d21b60648201526084016107ea565b600080866001600160a01b031685876040516110fc9190611807565b60006040518083038185875af1925050503d8060008114611139576040519150601f19603f3d011682016040523d82523d6000602084013e61113e565b606091505b509150915061114f8783838761115a565b979650505050505050565b606083156111c95782516000036111c2576001600160a01b0385163b6111c25760405162461bcd60e51b815260206004820152601d60248201527f416464726573733a2063616c6c20746f206e6f6e2d636f6e747261637400000060448201526064016107ea565b5081611077565b61107783838151156111de5781518083602001fd5b8060405162461bcd60e51b81526004016107ea9190611823565b80356001600160a01b038116811461120f57600080fd5b919050565b803562ffffff8116811461120f57600080fd5b80151581146107fc57600080fd5b60008060008060008060c0878903121561124e57600080fd5b611257876111f8565b9550611265602088016111f8565b9450604087013593506060870135925061128160808801611214565b915060a087013561129181611227565b809150509295509295509295565b600080600080600080600060c0888a0312156112ba57600080fd5b6112c3886111f8565b96506112d1602089016111f8565b955060408801359450606088013593506112ed60808901611214565b925060a088013567ffffffffffffffff8082111561130a57600080fd5b818a0191508a601f83011261131e57600080fd5b81358181111561132d57600080fd5b8b602082850101111561133f57600080fd5b60208301945080935050505092959891949750929550565b634e487b7160e01b600052604160045260246000fd5b604051601f8201601f1916810167ffffffffffffffff8111828210171561139657611396611357565b604052919050565b600080600080608085870312156113b457600080fd5b843567ffffffffffffffff808211156113cc57600080fd5b818701915087601f8301126113e057600080fd5b81356020828211156113f4576113f4611357565b611406601f8301601f1916820161136d565b9250818352898183860101111561141c57600080fd5b8181850182850137600081838501015282975061143a818a016111f8565b979a97995050505060408601359560600135949350505050565b600067ffffffffffffffff82111561146e5761146e611357565b5060051b60200190565b60008060006060848603121561148d57600080fd5b833567ffffffffffffffff8111156114a457600080fd5b8401601f810186136114b557600080fd5b803560206114ca6114c583611454565b61136d565b82815260059290921b830181019181810190898411156114e957600080fd5b938201935b8385101561150e576114ff856111f8565b825293820193908201906114ee565b999188013598505060409096013595945050505050565b60006020828403121561153757600080fd5b611540826111f8565b9392505050565b634e487b7160e01b600052601160045260246000fd5b8082018082111561157057611570611547565b92915050565b60006020828403121561158857600080fd5b815161154081611227565b60005b838110156115ae578181015183820152602001611596565b50506000910152565b600081518084526115cf816020860160208601611593565b601f01601f19169290920160200192915050565b602081526000825160a060208401526115ff60c08401826115b7565b905060018060a01b0360208501511660408401526040840151606084015260608401516080840152608084015160a08401528091505092915050565b60006020828403121561164d57600080fd5b5051919050565b634e487b7160e01b600052603260045260246000fd5b60008261168757634e487b7160e01b600052601260045260246000fd5b500490565b808202811582820484141761157057611570611547565b6000600182016116b5576116b5611547565b5060010190565b600060a0820187835260208781850152604060a08186015282885180855260c087019150838a01945060005b8181101561173257855180516001600160a01b03908116855286820151811687860152858201511515868601526060918201511690840152948401946080909201916001016116e8565b50506001600160a01b0388166060870152935061174e92505050565b8260808301529695505050505050565b6000602080838503121561177157600080fd5b825167ffffffffffffffff81111561178857600080fd5b8301601f8101851361179957600080fd5b80516117a76114c582611454565b81815260059190911b820183019083810190878311156117c657600080fd5b928401925b8284101561114f578351825292840192908401906117cb565b8181038181111561157057611570611547565b8183823760009101908152919050565b60008251611819818460208701611593565b9190910192915050565b60208152600061154060208301846115b756fea164736f6c6343000813000a",
  "devdoc": {
    "kind": "dev",
    "methods": {
      "owner()": {
        "details": "Returns the address of the current owner."
      },
      "renounceOwnership()": {
        "details": "Leaves the contract without owner. It will not be possible to call `onlyOwner` functions. Can only be called by the current owner. NOTE: Renouncing ownership will leave the contract without an owner, thereby disabling any functionality that is only available to the owner."
      },
      "transferOwnership(address)": {
        "details": "Transfers ownership of the contract to a new account (`newOwner`). Can only be called by the current owner."
      }
    },
    "version": 1
  },
  "userdoc": {
    "kind": "user",
    "methods": {},
    "version": 1
  },
  "storageLayout": {
    "storage": [
      {
        "astId": 863,
        "contract": "contracts/arbitrage/Arbitrageur.sol:Arbitrageur",
        "label": "_owner",
        "offset": 0,
        "slot": "0",
        "type": "t_address"
      }
    ],
    "types": {
      "t_address": {
        "encoding": "inplace",
        "label": "address",
        "numberOfBytes": "20"
      }
    }
  }
}