{
  "address": "0xf2d01ff325afC65F6AB541c923FB31393B57E0c1",
  "abi": [
    {
      "inputs": [],
      "name": "NoProfit",
      "type": "error"
    },
    {
      "inputs": [],
      "name": "SwapFail",
      "type": "error"
    },
    {
      "anonymous": false,
      "inputs": [
        {
          "indexed": true,
          "internalType": "address",
          "name": "previousOwner",
          "type": "address"
        },
        {
          "indexed": true,
          "internalType": "address",
          "name": "newOwner",
          "type": "address"
        }
      ],
      "name": "OwnershipTransferred",
      "type": "event"
    },
    {
      "inputs": [],
      "name": "ONEINCH_AGGREGATION_ROUTERV_5",
      "outputs": [
        {
          "internalType": "address",
          "name": "",
          "type": "address"
        }
      ],
      "stateMutability": "view",
      "type": "function"
    },
    {
      "inputs": [],
      "name": "UNISWAP_V3_SWAP_ROUTER",
      "outputs": [
        {
          "internalType": "address",
          "name": "",
          "type": "address"
        }
      ],
      "stateMutability": "view",
      "type": "function"
    },
    {
      "inputs": [],
      "name": "UNISWAP_V3_SWAP_ROUTER_02",
      "outputs": [
        {
          "internalType": "address",
          "name": "",
          "type": "address"
        }
      ],
      "stateMutability": "view",
      "type": "function"
    },
    {
      "inputs": [],
      "name": "VELODROME_V2_POOL_FACTORY",
      "outputs": [
        {
          "internalType": "address",
          "name": "",
          "type": "address"
        }
      ],
      "stateMutability": "view",
      "type": "function"
    },
    {
      "inputs": [],
      "name": "VELODROME_V2_ROUTER",
      "outputs": [
        {
          "internalType": "address",
          "name": "",
          "type": "address"
        }
      ],
      "stateMutability": "view",
      "type": "function"
    },
    {
      "inputs": [
        {
          "internalType": "address",
          "name": "tokenIn",
          "type": "address"
        },
        {
          "internalType": "address",
          "name": "tokenOut",
          "type": "address"
        },
        {
          "internalType": "uint256",
          "name": "amountIn",
          "type": "uint256"
        },
        {
          "internalType": "uint256",
          "name": "minProfit",
          "type": "uint256"
        },
        {
          "internalType": "uint24",
          "name": "uniswapV3Fee",
          "type": "uint24"
        },
        {
          "internalType": "bytes",
          "name": "oneInchData",
          "type": "bytes"
        }
      ],
      "name": "arbitrageOneInchToUniswapV3",
      "outputs": [],
      "stateMutability": "nonpayable",
      "type": "function"
    },
    {
      "inputs": [
        {
          "internalType": "address",
          "name": "tokenIn",
          "type": "address"
        },
        {
          "internalType": "address",
          "name": "tokenOut",
          "type": "address"
        },
        {
          "internalType": "uint256",
          "name": "amountIn",
          "type": "uint256"
        },
        {
          "internalType": "uint256",
          "name": "minProfit",
          "type": "uint256"
        },
        {
          "internalType": "uint24",
          "name": "uniswapV3Fee",
          "type": "uint24"
        },
        {
          "internalType": "bool",
          "name": "velodromeV2Stable",
          "type": "bool"
        }
      ],
      "name": "arbitrageUniswapV3toVelodromeV2",
      "outputs": [],
      "stateMutability": "nonpayable",
      "type": "function"
    },
    {
      "inputs": [
        {
          "internalType": "address",
          "name": "tokenIn",
          "type": "address"
        },
        {
          "internalType": "address",
          "name": "tokenOut",
          "type": "address"
        },
        {
          "internalType": "uint256",
          "name": "amountIn",
          "type": "uint256"
        },
        {
          "internalType": "uint256",
          "name": "minProfit",
          "type": "uint256"
        },
        {
          "internalType": "uint24",
          "name": "uniswapV3Fee",
          "type": "uint24"
        },
        {
          "internalType": "bool",
          "name": "velodromeV2Stable",
          "type": "bool"
        }
      ],
      "name": "arbitrageVelodromeV2toUniswapV3",
      "outputs": [],
      "stateMutability": "nonpayable",
      "type": "function"
    },
    {
      "inputs": [],
      "name": "owner",
      "outputs": [
        {
          "internalType": "address",
          "name": "",
          "type": "address"
        }
      ],
      "stateMutability": "view",
      "type": "function"
    },
    {
      "inputs": [],
      "name": "renounceOwnership",
      "outputs": [],
      "stateMutability": "nonpayable",
      "type": "function"
    },
    {
      "inputs": [
        {
          "internalType": "address",
          "name": "newOwner",
          "type": "address"
        }
      ],
      "name": "transferOwnership",
      "outputs": [],
      "stateMutability": "nonpayable",
      "type": "function"
    },
    {
      "inputs": [
        {
          "internalType": "bytes",
          "name": "path",
          "type": "bytes"
        },
        {
          "internalType": "address",
          "name": "tokenIn",
          "type": "address"
        },
        {
          "internalType": "uint256",
          "name": "amountIn",
          "type": "uint256"
        },
        {
          "internalType": "uint256",
          "name": "minProfit",
          "type": "uint256"
        }
      ],
      "name": "triangularArbitrageUniswapV3",
      "outputs": [],
      "stateMutability": "nonpayable",
      "type": "function"
    },
    {
      "inputs": [
        {
          "internalType": "address[]",
          "name": "tokens",
          "type": "address[]"
        },
        {
          "internalType": "uint256",
          "name": "amountIn",
          "type": "uint256"
        },
        {
          "internalType": "uint256",
          "name": "minProfit",
          "type": "uint256"
        }
      ],
      "name": "triangularArbitrageVelodromeV2",
      "outputs": [],
      "stateMutability": "nonpayable",
      "type": "function"
    },
    {
      "inputs": [
        {
          "internalType": "address",
          "name": "token",
          "type": "address"
        }
      ],
      "name": "withdrawAll",
      "outputs": [],
      "stateMutability": "nonpayable",
      "type": "function"
    }
  ],
  "transactionHash": "0xa51b6f2def1698b5fa74b672756d45713dfe2e5eb7ff3911fc216ed5100a99ba",
  "args": [],
  "numDeployments": 1,
  "solcInputHash": "939fae132404ce79f71a0ed3f67afed6",
  "bytecode": "0x608060405234801561001057600080fd5b5061001a3361001f565b61006f565b600080546001600160a01b038381166001600160a01b0319831681178455604051919092169283917f8be0079c531659141344cd1fd0a4f28419497f9722a3daafe3b4186f6b6457e09190a35050565b6118158061007e6000396000f3fe608060405234801561001057600080fd5b50600436106100ea5760003560e01c80638da5cb5b1161008c578063ea182fca11610066578063ea182fca146101d6578063f2fde38b146101f1578063fa09e63014610204578063ff394eeb1461021757600080fd5b80638da5cb5b14610197578063937b4966146101a85780639d1567bb146101bb57600080fd5b8063715018a6116100c8578063715018a61461014e5780637cedde61146101565780638123a68d146101695780638bb4d7391461017c57600080fd5b806314b44482146100ef57806340024da914610104578063552852b91461013b575b600080fd5b6101026100fd366004611207565b610232565b005b61011f73f1046053aa5682b4f9a81b5481394da16be5ff5a81565b6040516001600160a01b03909116815260200160405180910390f35b610102610149366004611271565b610290565b6101026102f0565b610102610164366004611207565b610304565b610102610177366004611370565b610337565b61011f73e592427a0aece92de3edee1f18e0157c0586156481565b6000546001600160a01b031661011f565b6101026101b636600461144a565b61049f565b61011f731111111254eeb25477b68fb85ed929f73a96058281565b61011f73a062ae8a9c5e11aaa026fc2670b0d65ccc8b285881565b6101026101ff3660046114f7565b610797565b6101026102123660046114f7565b610815565b61011f7368b3465833fb72a70ecdf485e0e4c7bd8665fc4581565b6102476001600160a01b0387163330876108ab565b60006102558787878561091c565b9050600061026587898487610b21565b9050610272868287610cba565b6102866001600160a01b0389163383610ce8565b5050505050505050565b6102a56001600160a01b0388163330886108ab565b60006102b48888888686610d18565b905060006102c4888a8488610b21565b90506102d1878288610cba565b6102e56001600160a01b038a163383610ce8565b505050505050505050565b6102f8610f28565b6103026000610f82565b565b6103196001600160a01b0387163330876108ab565b600061032787878786610b21565b905060006102658789848661091c565b61034c6001600160a01b0384163330856108ab565b60405163095ea7b360e01b815273e592427a0aece92de3edee1f18e0157c058615646004820152602481018390526001600160a01b0384169063095ea7b3906044016020604051808303816000875af11580156103ad573d6000803e3d6000fd5b505050506040513d601f19601f820116820180604052508101906103d19190611519565b506040805160a081018252858152306020820152428183015260608101849052600060808201819052915163c04b8d5960e01b815290919073e592427a0aece92de3edee1f18e0157c058615649063c04b8d5990610433908590600401611586565b6020604051808303816000875af1158015610452573d6000803e3d6000fd5b505050506040513d601f19601f8201168201806040525081019061047691906115de565b9050610483848285610cba565b6104976001600160a01b0386163383610ce8565b505050505050565b6000836000815181106104b4576104b46115f7565b602090810291909101015190506104d66001600160a01b0382163330866108ab565b60405163095ea7b360e01b815273a062ae8a9c5e11aaa026fc2670b0d65ccc8b28586004820152602481018490526001600160a01b0382169063095ea7b3906044016020604051808303816000875af1158015610537573d6000803e3d6000fd5b505050506040513d601f19601f8201168201806040525081019061055b9190611519565b5060006002855161056c9190611623565b905060008167ffffffffffffffff81111561058957610589611329565b6040519080825280602002602001820160405280156105db57816020015b6040805160808101825260008082526020808301829052928201819052606082015282526000199092019101816105a75790505b50905060005b828110156106c1576040518060800160405280888360026106029190611645565b81518110610612576106126115f7565b60200260200101516001600160a01b03168152602001888360026106369190611645565b610641906001611662565b81518110610651576106516115f7565b60200260200101516001600160a01b0316815260200160001515815260200173f1046053aa5682b4f9a81b5481394da16be5ff5a6001600160a01b03168152508282815181106106a3576106a36115f7565b602002602001018190525080806106b990611675565b9150506105e1565b5060405163cac88ea960e01b815260009073a062ae8a9c5e11aaa026fc2670b0d65ccc8b28589063cac88ea990610704908990859087903090429060040161168e565b6000604051808303816000875af1158015610723573d6000803e3d6000fd5b505050506040513d6000823e601f3d908101601f1916820160405261074b9190810190611730565b90506000816001835161075e91906117b6565b8151811061076e5761076e6115f7565b60200260200101519050610783878288610cba565b6102866001600160a01b0386163383610ce8565b61079f610f28565b6001600160a01b0381166108095760405162461bcd60e51b815260206004820152602660248201527f4f776e61626c653a206e6577206f776e657220697320746865207a65726f206160448201526564647265737360d01b60648201526084015b60405180910390fd5b61081281610f82565b50565b61081d610f28565b6108126108326000546001600160a01b031690565b6040516370a0823160e01b81523060048201526001600160a01b038416906370a0823190602401602060405180830381865afa158015610876573d6000803e3d6000fd5b505050506040513d601f19601f8201168201806040525081019061089a91906115de565b6001600160a01b0384169190610ce8565b6040516001600160a01b03808516602483015283166044820152606481018290526109169085906323b872dd60e01b906084015b60408051601f198184030181529190526020810180516001600160e01b03166001600160e01b031990931692909217909152610fd2565b50505050565b60405163095ea7b360e01b815273a062ae8a9c5e11aaa026fc2670b0d65ccc8b28586004820152602481018390526000906001600160a01b0386169063095ea7b3906044016020604051808303816000875af1158015610980573d6000803e3d6000fd5b505050506040513d601f19601f820116820180604052508101906109a49190611519565b50604080516001808252818301909252600091816020015b6040805160808101825260008082526020808301829052928201819052606082015282526000199092019101816109bc5790505090506040518060800160405280876001600160a01b03168152602001866001600160a01b03168152602001841515815260200173f1046053aa5682b4f9a81b5481394da16be5ff5a6001600160a01b031681525081600081518110610a5757610a576115f7565b602090810291909101015260405163cac88ea960e01b815260009073a062ae8a9c5e11aaa026fc2670b0d65ccc8b28589063cac88ea990610aa4908890859087903090429060040161168e565b6000604051808303816000875af1158015610ac3573d6000803e3d6000fd5b505050506040513d6000823e601f3d908101601f19168201604052610aeb9190810190611730565b90508060018251610afc91906117b6565b81518110610b0c57610b0c6115f7565b6020026020010151925050505b949350505050565b60405163095ea7b360e01b815273e592427a0aece92de3edee1f18e0157c058615646004820152602481018390526000906001600160a01b0386169063095ea7b3906044016020604051808303816000875af1158015610b85573d6000803e3d6000fd5b505050506040513d601f19601f82011682018060405250810190610ba99190611519565b5060408051610100810182526001600160a01b0387811682528681166020830190815262ffffff8681168486019081523060608601908152426080870190815260a087018b8152600060c0890181815260e08a01918252995163414bf38960e01b81529851881660048a0152955187166024890152925190931660448701525184166064860152905160848501525160a4840152925160c4830152915190911660e482015273e592427a0aece92de3edee1f18e0157c058615649063414bf38990610104016020604051808303816000875af1158015610c8d573d6000803e3d6000fd5b505050506040513d601f19601f82011682018060405250810190610cb191906115de565b95945050505050565b610cc48184611662565b8211610ce3576040516371cd57f760e11b815260040160405180910390fd5b505050565b6040516001600160a01b038316602482015260448101829052610ce390849063a9059cbb60e01b906064016108df565b60405163095ea7b360e01b8152731111111254eeb25477b68fb85ed929f73a9605826004820152602481018490526000906001600160a01b0387169063095ea7b3906044016020604051808303816000875af1158015610d7c573d6000803e3d6000fd5b505050506040513d601f19601f82011682018060405250810190610da09190611519565b506040516370a0823160e01b81523060048201526000906001600160a01b038716906370a0823190602401602060405180830381865afa158015610de8573d6000803e3d6000fd5b505050506040513d601f19601f82011682018060405250810190610e0c91906115de565b90506000731111111254eeb25477b68fb85ed929f73a9605826001600160a01b031660008686604051610e409291906117c9565b60006040518083038185875af1925050503d8060008114610e7d576040519150601f19603f3d011682016040523d82523d6000602084013e610e82565b606091505b5050905080610ea4576040516316e128d760e31b815260040160405180910390fd5b6040516370a0823160e01b81523060048201526000906001600160a01b038916906370a0823190602401602060405180830381865afa158015610eeb573d6000803e3d6000fd5b505050506040513d601f19601f82011682018060405250810190610f0f91906115de565b9050610f1b83826117b6565b9998505050505050505050565b6000546001600160a01b031633146103025760405162461bcd60e51b815260206004820181905260248201527f4f776e61626c653a2063616c6c6572206973206e6f7420746865206f776e65726044820152606401610800565b600080546001600160a01b038381166001600160a01b0319831681178455604051919092169283917f8be0079c531659141344cd1fd0a4f28419497f9722a3daafe3b4186f6b6457e09190a35050565b6000611027826040518060400160405280602081526020017f5361666545524332303a206c6f772d6c6576656c2063616c6c206661696c6564815250856001600160a01b03166110a79092919063ffffffff16565b90508051600014806110485750808060200190518101906110489190611519565b610ce35760405162461bcd60e51b815260206004820152602a60248201527f5361666545524332303a204552433230206f7065726174696f6e20646964206e6044820152691bdd081cdd58d8d9595960b21b6064820152608401610800565b6060610b19848460008585600080866001600160a01b031685876040516110ce91906117d9565b60006040518083038185875af1925050503d806000811461110b576040519150601f19603f3d011682016040523d82523d6000602084013e611110565b606091505b50915091506111218783838761112c565b979650505050505050565b6060831561119b578251600003611194576001600160a01b0385163b6111945760405162461bcd60e51b815260206004820152601d60248201527f416464726573733a2063616c6c20746f206e6f6e2d636f6e74726163740000006044820152606401610800565b5081610b19565b610b1983838151156111b05781518083602001fd5b8060405162461bcd60e51b815260040161080091906117f5565b80356001600160a01b03811681146111e157600080fd5b919050565b803562ffffff811681146111e157600080fd5b801515811461081257600080fd5b60008060008060008060c0878903121561122057600080fd5b611229876111ca565b9550611237602088016111ca565b94506040870135935060608701359250611253608088016111e6565b915060a0870135611263816111f9565b809150509295509295509295565b600080600080600080600060c0888a03121561128c57600080fd5b611295886111ca565b96506112a3602089016111ca565b955060408801359450606088013593506112bf608089016111e6565b925060a088013567ffffffffffffffff808211156112dc57600080fd5b818a0191508a601f8301126112f057600080fd5b8135818111156112ff57600080fd5b8b602082850101111561131157600080fd5b60208301945080935050505092959891949750929550565b634e487b7160e01b600052604160045260246000fd5b604051601f8201601f1916810167ffffffffffffffff8111828210171561136857611368611329565b604052919050565b6000806000806080858703121561138657600080fd5b843567ffffffffffffffff8082111561139e57600080fd5b818701915087601f8301126113b257600080fd5b81356020828211156113c6576113c6611329565b6113d8601f8301601f1916820161133f565b925081835289818386010111156113ee57600080fd5b8181850182850137600081838501015282975061140c818a016111ca565b979a97995050505060408601359560600135949350505050565b600067ffffffffffffffff82111561144057611440611329565b5060051b60200190565b60008060006060848603121561145f57600080fd5b833567ffffffffffffffff81111561147657600080fd5b8401601f8101861361148757600080fd5b8035602061149c61149783611426565b61133f565b82815260059290921b830181019181810190898411156114bb57600080fd5b938201935b838510156114e0576114d1856111ca565b825293820193908201906114c0565b999188013598505060409096013595945050505050565b60006020828403121561150957600080fd5b611512826111ca565b9392505050565b60006020828403121561152b57600080fd5b8151611512816111f9565b60005b83811015611551578181015183820152602001611539565b50506000910152565b60008151808452611572816020860160208601611536565b601f01601f19169290920160200192915050565b602081526000825160a060208401526115a260c084018261155a565b905060018060a01b0360208501511660408401526040840151606084015260608401516080840152608084015160a08401528091505092915050565b6000602082840312156115f057600080fd5b5051919050565b634e487b7160e01b600052603260045260246000fd5b634e487b7160e01b600052601160045260246000fd5b60008261164057634e487b7160e01b600052601260045260246000fd5b500490565b808202811582820484141761165c5761165c61160d565b92915050565b8082018082111561165c5761165c61160d565b6000600182016116875761168761160d565b5060010190565b600060a0820187835260208781850152604060a08186015282885180855260c087019150838a01945060005b8181101561170457855180516001600160a01b03908116855286820151811687860152858201511515868601526060918201511690840152948401946080909201916001016116ba565b50506001600160a01b0388166060870152935061172092505050565b8260808301529695505050505050565b6000602080838503121561174357600080fd5b825167ffffffffffffffff81111561175a57600080fd5b8301601f8101851361176b57600080fd5b805161177961149782611426565b81815260059190911b8201830190838101908783111561179857600080fd5b928401925b828410156111215783518252928401929084019061179d565b8181038181111561165c5761165c61160d565b8183823760009101908152919050565b600082516117eb818460208701611536565b9190910192915050565b602081526000611512602083018461155a56fea164736f6c6343000813000a",
  "devdoc": {
    "kind": "dev",
    "methods": {
      "owner()": {
        "details": "Returns the address of the current owner."
      },
      "renounceOwnership()": {
        "details": "Leaves the contract without owner. It will not be possible to call `onlyOwner` functions. Can only be called by the current owner. NOTE: Renouncing ownership will leave the contract without an owner, thereby disabling any functionality that is only available to the owner."
      },
      "transferOwnership(address)": {
        "details": "Transfers ownership of the contract to a new account (`newOwner`). Can only be called by the current owner."
      }
    },
    "version": 1
  },
  "userdoc": {
    "kind": "user",
    "methods": {},
    "version": 1
  },
  "storageLayout": {
    "storage": [
      {
        "astId": 887,
        "contract": "contracts/arbitrage/Arbitrageur.sol:Arbitrageur",
        "label": "_owner",
        "offset": 0,
        "slot": "0",
        "type": "t_address"
      }
    ],
    "types": {
      "t_address": {
        "encoding": "inplace",
        "label": "address",
        "numberOfBytes": "20"
      }
    }
  }
}