{
  "address": "0xd8D5CB34D380Af6b87D57674A69A91E8F1B35436",
  "abi": [
    {
      "inputs": [],
      "name": "NoProfit",
      "type": "error"
    },
    {
      "inputs": [],
      "name": "SwapFail",
      "type": "error"
    },
    {
      "anonymous": false,
      "inputs": [
        {
          "indexed": true,
          "internalType": "address",
          "name": "previousOwner",
          "type": "address"
        },
        {
          "indexed": true,
          "internalType": "address",
          "name": "newOwner",
          "type": "address"
        }
      ],
      "name": "OwnershipTransferred",
      "type": "event"
    },
    {
      "inputs": [],
      "name": "ONEINCH_AGGREGATION_ROUTER_V5",
      "outputs": [
        {
          "internalType": "address",
          "name": "",
          "type": "address"
        }
      ],
      "stateMutability": "view",
      "type": "function"
    },
    {
      "inputs": [],
      "name": "UNISWAP_V3_SWAP_ROUTER",
      "outputs": [
        {
          "internalType": "address",
          "name": "",
          "type": "address"
        }
      ],
      "stateMutability": "view",
      "type": "function"
    },
    {
      "inputs": [],
      "name": "VELODROME_V2_POOL_FACTORY",
      "outputs": [
        {
          "internalType": "address",
          "name": "",
          "type": "address"
        }
      ],
      "stateMutability": "view",
      "type": "function"
    },
    {
      "inputs": [],
      "name": "VELODROME_V2_ROUTER",
      "outputs": [
        {
          "internalType": "address",
          "name": "",
          "type": "address"
        }
      ],
      "stateMutability": "view",
      "type": "function"
    },
    {
      "inputs": [
        {
          "internalType": "address",
          "name": "tokenIn",
          "type": "address"
        },
        {
          "internalType": "address",
          "name": "tokenOut",
          "type": "address"
        },
        {
          "internalType": "uint256",
          "name": "amountIn",
          "type": "uint256"
        },
        {
          "internalType": "uint256",
          "name": "minProfit",
          "type": "uint256"
        },
        {
          "internalType": "uint24",
          "name": "uniswapV3Fee",
          "type": "uint24"
        },
        {
          "internalType": "bytes",
          "name": "oneInchData",
          "type": "bytes"
        }
      ],
      "name": "arbitrageOneInchToUniswapV3",
      "outputs": [],
      "stateMutability": "nonpayable",
      "type": "function"
    },
    {
      "inputs": [
        {
          "internalType": "address",
          "name": "tokenIn",
          "type": "address"
        },
        {
          "internalType": "address",
          "name": "tokenOut",
          "type": "address"
        },
        {
          "internalType": "uint256",
          "name": "amountIn",
          "type": "uint256"
        },
        {
          "internalType": "uint256",
          "name": "minProfit",
          "type": "uint256"
        },
        {
          "internalType": "uint24",
          "name": "uniswapV3Fee",
          "type": "uint24"
        },
        {
          "internalType": "bool",
          "name": "velodromeV2Stable",
          "type": "bool"
        }
      ],
      "name": "arbitrageUniswapV3toVelodromeV2",
      "outputs": [],
      "stateMutability": "nonpayable",
      "type": "function"
    },
    {
      "inputs": [
        {
          "internalType": "address",
          "name": "tokenIn",
          "type": "address"
        },
        {
          "internalType": "address",
          "name": "tokenOut",
          "type": "address"
        },
        {
          "internalType": "uint256",
          "name": "amountIn",
          "type": "uint256"
        },
        {
          "internalType": "uint256",
          "name": "minProfit",
          "type": "uint256"
        },
        {
          "internalType": "uint24",
          "name": "uniswapV3Fee",
          "type": "uint24"
        },
        {
          "internalType": "bool",
          "name": "velodromeV2Stable",
          "type": "bool"
        }
      ],
      "name": "arbitrageVelodromeV2toUniswapV3",
      "outputs": [],
      "stateMutability": "nonpayable",
      "type": "function"
    },
    {
      "inputs": [],
      "name": "owner",
      "outputs": [
        {
          "internalType": "address",
          "name": "",
          "type": "address"
        }
      ],
      "stateMutability": "view",
      "type": "function"
    },
    {
      "inputs": [],
      "name": "renounceOwnership",
      "outputs": [],
      "stateMutability": "nonpayable",
      "type": "function"
    },
    {
      "inputs": [
        {
          "internalType": "address",
          "name": "newOwner",
          "type": "address"
        }
      ],
      "name": "transferOwnership",
      "outputs": [],
      "stateMutability": "nonpayable",
      "type": "function"
    },
    {
      "inputs": [
        {
          "internalType": "bytes",
          "name": "path",
          "type": "bytes"
        },
        {
          "internalType": "address",
          "name": "tokenIn",
          "type": "address"
        },
        {
          "internalType": "uint256",
          "name": "amountIn",
          "type": "uint256"
        },
        {
          "internalType": "uint256",
          "name": "minProfit",
          "type": "uint256"
        }
      ],
      "name": "triangularArbitrageUniswapV3",
      "outputs": [],
      "stateMutability": "nonpayable",
      "type": "function"
    },
    {
      "inputs": [
        {
          "internalType": "address[]",
          "name": "tokens",
          "type": "address[]"
        },
        {
          "internalType": "uint256",
          "name": "amountIn",
          "type": "uint256"
        },
        {
          "internalType": "uint256",
          "name": "minProfit",
          "type": "uint256"
        }
      ],
      "name": "triangularArbitrageVelodromeV2",
      "outputs": [],
      "stateMutability": "nonpayable",
      "type": "function"
    },
    {
      "inputs": [
        {
          "internalType": "address",
          "name": "token",
          "type": "address"
        }
      ],
      "name": "withdrawAll",
      "outputs": [],
      "stateMutability": "nonpayable",
      "type": "function"
    }
  ],
  "transactionHash": "0xc9026a44a5fcc1e3ad25636061600e409bbbfbbcc7f1045faf21eabd6821858c",
  "args": [],
  "numDeployments": 3,
  "solcInputHash": "8ca9c16945eba6311842f01e1a782815",
  "bytecode": "0x608060405234801561001057600080fd5b5061001a3361001f565b61006f565b600080546001600160a01b038381166001600160a01b0319831681178455604051919092169283917f8be0079c531659141344cd1fd0a4f28419497f9722a3daafe3b4186f6b6457e09190a35050565b6117b08061007e6000396000f3fe608060405234801561001057600080fd5b50600436106100cf5760003560e01c80638bb4d7391161008c578063ea182fca11610066578063ea182fca146101a0578063ee408408146101bb578063f2fde38b146101d6578063fa09e630146101e957600080fd5b80638bb4d739146101615780638da5cb5b1461017c578063937b49661461018d57600080fd5b806314b44482146100d457806340024da9146100e9578063552852b914610120578063715018a6146101335780637cedde611461013b5780638123a68d1461014e575b600080fd5b6100e76100e23660046111a2565b6101fc565b005b61010473f1046053aa5682b4f9a81b5481394da16be5ff5a81565b6040516001600160a01b03909116815260200160405180910390f35b6100e761012e36600461120c565b610245565b6100e761028d565b6100e76101493660046111a2565b6102a1565b6100e761015c36600461130b565b6102e0565b61010473e592427a0aece92de3edee1f18e0157c0586156481565b6000546001600160a01b0316610104565b6100e761019b3660046113e5565b61043f565b61010473a062ae8a9c5e11aaa026fc2670b0d65ccc8b285881565b610104731111111254eeb25477b68fb85ed929f73a96058281565b6100e76101e4366004611492565b6106fa565b6100e76101f7366004611492565b610778565b6102116001600160a01b03871633308761080e565b60006102228787876000863061087f565b905061023b868883610234888a6114ca565b8733610a85565b5050505050505050565b61025a6001600160a01b03881633308861080e565b60006102698888888686610c21565b905061028287898361027b898b6114ca565b8833610a85565b505050505050505050565b610295610e31565b61029f6000610e8b565b565b6102b66001600160a01b03871633308761080e565b60006102c787878760008730610a85565b905061023b8688836102d9888a6114ca565b863361087f565b6102f56001600160a01b03841633308561080e565b60405163095ea7b360e01b815273e592427a0aece92de3edee1f18e0157c058615646004820152602481018390526001600160a01b0384169063095ea7b3906044016020604051808303816000875af1158015610356573d6000803e3d6000fd5b505050506040513d601f19601f8201168201806040525081019061037a91906114e3565b5073e592427a0aece92de3edee1f18e0157c058615646001600160a01b031663c04b8d596040518060a00160405280878152602001336001600160a01b0316815260200142815260200185815260200184866103d691906114ca565b8152506040518263ffffffff1660e01b81526004016103f59190611550565b6020604051808303816000875af1158015610414573d6000803e3d6000fd5b505050506040513d601f19601f8201168201806040525081019061043891906115a8565b5050505050565b600083600081518110610454576104546115c1565b602090810291909101015190506104766001600160a01b03821633308661080e565b60405163095ea7b360e01b815273a062ae8a9c5e11aaa026fc2670b0d65ccc8b28586004820152602481018490526001600160a01b0382169063095ea7b3906044016020604051808303816000875af11580156104d7573d6000803e3d6000fd5b505050506040513d601f19601f820116820180604052508101906104fb91906114e3565b5060006002855161050c91906115d7565b905060008167ffffffffffffffff811115610529576105296112c4565b60405190808252806020026020018201604052801561057b57816020015b6040805160808101825260008082526020808301829052928201819052606082015282526000199092019101816105475790505b50905060005b82811015610661576040518060800160405280888360026105a291906115f9565b815181106105b2576105b26115c1565b60200260200101516001600160a01b03168152602001888360026105d691906115f9565b6105e19060016114ca565b815181106105f1576105f16115c1565b60200260200101516001600160a01b0316815260200160001515815260200173f1046053aa5682b4f9a81b5481394da16be5ff5a6001600160a01b0316815250828281518110610643576106436115c1565b6020026020010181905250808061065990611610565b915050610581565b5073a062ae8a9c5e11aaa026fc2670b0d65ccc8b285863cac88ea98661068787826114ca565b8433426040518663ffffffff1660e01b81526004016106aa959493929190611629565b6000604051808303816000875af11580156106c9573d6000803e3d6000fd5b505050506040513d6000823e601f3d908101601f191682016040526106f191908101906116cb565b50505050505050565b610702610e31565b6001600160a01b03811661076c5760405162461bcd60e51b815260206004820152602660248201527f4f776e61626c653a206e6577206f776e657220697320746865207a65726f206160448201526564647265737360d01b60648201526084015b60405180910390fd5b61077581610e8b565b50565b610780610e31565b6107756107956000546001600160a01b031690565b6040516370a0823160e01b81523060048201526001600160a01b038416906370a0823190602401602060405180830381865afa1580156107d9573d6000803e3d6000fd5b505050506040513d601f19601f820116820180604052508101906107fd91906115a8565b6001600160a01b0384169190610edb565b6040516001600160a01b03808516602483015283166044820152606481018290526108799085906323b872dd60e01b906084015b60408051601f198184030181529190526020810180516001600160e01b03166001600160e01b031990931692909217909152610f10565b50505050565b60405163095ea7b360e01b815273a062ae8a9c5e11aaa026fc2670b0d65ccc8b28586004820152602481018590526000906001600160a01b0388169063095ea7b3906044016020604051808303816000875af11580156108e3573d6000803e3d6000fd5b505050506040513d601f19601f8201168201806040525081019061090791906114e3565b50604080516001808252818301909252600091816020015b60408051608081018252600080825260208083018290529282018190526060820152825260001990920191018161091f5790505090506040518060800160405280896001600160a01b03168152602001886001600160a01b03168152602001851515815260200173f1046053aa5682b4f9a81b5481394da16be5ff5a6001600160a01b0316815250816000815181106109ba576109ba6115c1565b602090810291909101015260405163cac88ea960e01b815260009073a062ae8a9c5e11aaa026fc2670b0d65ccc8b28589063cac88ea990610a07908a908a9087908a904290600401611629565b6000604051808303816000875af1158015610a26573d6000803e3d6000fd5b505050506040513d6000823e601f3d908101601f19168201604052610a4e91908101906116cb565b90508060018251610a5f9190611751565b81518110610a6f57610a6f6115c1565b6020026020010151925050509695505050505050565b60405163095ea7b360e01b815273e592427a0aece92de3edee1f18e0157c058615646004820152602481018590526000906001600160a01b0388169063095ea7b3906044016020604051808303816000875af1158015610ae9573d6000803e3d6000fd5b505050506040513d601f19601f82011682018060405250810190610b0d91906114e3565b5060408051610100810182526001600160a01b0389811682528881166020830190815262ffffff87811684860190815287841660608601908152426080870190815260a087018d815260c088018d8152600060e08a01908152995163414bf38960e01b81529851881660048a0152955187166024890152925190931660448701525184166064860152905160848501525160a48401525160c4830152915190911660e482015273e592427a0aece92de3edee1f18e0157c058615649063414bf38990610104016020604051808303816000875af1158015610bf2573d6000803e3d6000fd5b505050506040513d601f19601f82011682018060405250810190610c1691906115a8565b979650505050505050565b60405163095ea7b360e01b8152731111111254eeb25477b68fb85ed929f73a9605826004820152602481018490526000906001600160a01b0387169063095ea7b3906044016020604051808303816000875af1158015610c85573d6000803e3d6000fd5b505050506040513d601f19601f82011682018060405250810190610ca991906114e3565b506040516370a0823160e01b81523060048201526000906001600160a01b038716906370a0823190602401602060405180830381865afa158015610cf1573d6000803e3d6000fd5b505050506040513d601f19601f82011682018060405250810190610d1591906115a8565b90506000731111111254eeb25477b68fb85ed929f73a9605826001600160a01b031660008686604051610d49929190611764565b60006040518083038185875af1925050503d8060008114610d86576040519150601f19603f3d011682016040523d82523d6000602084013e610d8b565b606091505b5050905080610dad576040516316e128d760e31b815260040160405180910390fd5b6040516370a0823160e01b81523060048201526000906001600160a01b038916906370a0823190602401602060405180830381865afa158015610df4573d6000803e3d6000fd5b505050506040513d601f19601f82011682018060405250810190610e1891906115a8565b9050610e248382611751565b9998505050505050505050565b6000546001600160a01b0316331461029f5760405162461bcd60e51b815260206004820181905260248201527f4f776e61626c653a2063616c6c6572206973206e6f7420746865206f776e65726044820152606401610763565b600080546001600160a01b038381166001600160a01b0319831681178455604051919092169283917f8be0079c531659141344cd1fd0a4f28419497f9722a3daafe3b4186f6b6457e09190a35050565b6040516001600160a01b038316602482015260448101829052610f0b90849063a9059cbb60e01b90606401610842565b505050565b6000610f65826040518060400160405280602081526020017f5361666545524332303a206c6f772d6c6576656c2063616c6c206661696c6564815250856001600160a01b0316610fe59092919063ffffffff16565b9050805160001480610f86575080806020019051810190610f8691906114e3565b610f0b5760405162461bcd60e51b815260206004820152602a60248201527f5361666545524332303a204552433230206f7065726174696f6e20646964206e6044820152691bdd081cdd58d8d9595960b21b6064820152608401610763565b6060610ff48484600085610ffc565b949350505050565b60608247101561105d5760405162461bcd60e51b815260206004820152602660248201527f416464726573733a20696e73756666696369656e742062616c616e636520666f6044820152651c8818d85b1b60d21b6064820152608401610763565b600080866001600160a01b031685876040516110799190611774565b60006040518083038185875af1925050503d80600081146110b6576040519150601f19603f3d011682016040523d82523d6000602084013e6110bb565b606091505b5091509150610c16878383876060831561113657825160000361112f576001600160a01b0385163b61112f5760405162461bcd60e51b815260206004820152601d60248201527f416464726573733a2063616c6c20746f206e6f6e2d636f6e74726163740000006044820152606401610763565b5081610ff4565b610ff4838381511561114b5781518083602001fd5b8060405162461bcd60e51b81526004016107639190611790565b80356001600160a01b038116811461117c57600080fd5b919050565b803562ffffff8116811461117c57600080fd5b801515811461077557600080fd5b60008060008060008060c087890312156111bb57600080fd5b6111c487611165565b95506111d260208801611165565b945060408701359350606087013592506111ee60808801611181565b915060a08701356111fe81611194565b809150509295509295509295565b600080600080600080600060c0888a03121561122757600080fd5b61123088611165565b965061123e60208901611165565b9550604088013594506060880135935061125a60808901611181565b925060a088013567ffffffffffffffff8082111561127757600080fd5b818a0191508a601f83011261128b57600080fd5b81358181111561129a57600080fd5b8b60208285010111156112ac57600080fd5b60208301945080935050505092959891949750929550565b634e487b7160e01b600052604160045260246000fd5b604051601f8201601f1916810167ffffffffffffffff81118282101715611303576113036112c4565b604052919050565b6000806000806080858703121561132157600080fd5b843567ffffffffffffffff8082111561133957600080fd5b818701915087601f83011261134d57600080fd5b8135602082821115611361576113616112c4565b611373601f8301601f191682016112da565b9250818352898183860101111561138957600080fd5b818185018285013760008183850101528297506113a7818a01611165565b979a97995050505060408601359560600135949350505050565b600067ffffffffffffffff8211156113db576113db6112c4565b5060051b60200190565b6000806000606084860312156113fa57600080fd5b833567ffffffffffffffff81111561141157600080fd5b8401601f8101861361142257600080fd5b80356020611437611432836113c1565b6112da565b82815260059290921b8301810191818101908984111561145657600080fd5b938201935b8385101561147b5761146c85611165565b8252938201939082019061145b565b999188013598505060409096013595945050505050565b6000602082840312156114a457600080fd5b6114ad82611165565b9392505050565b634e487b7160e01b600052601160045260246000fd5b808201808211156114dd576114dd6114b4565b92915050565b6000602082840312156114f557600080fd5b81516114ad81611194565b60005b8381101561151b578181015183820152602001611503565b50506000910152565b6000815180845261153c816020860160208601611500565b601f01601f19169290920160200192915050565b602081526000825160a0602084015261156c60c0840182611524565b905060018060a01b0360208501511660408401526040840151606084015260608401516080840152608084015160a08401528091505092915050565b6000602082840312156115ba57600080fd5b5051919050565b634e487b7160e01b600052603260045260246000fd5b6000826115f457634e487b7160e01b600052601260045260246000fd5b500490565b80820281158282048414176114dd576114dd6114b4565b600060018201611622576116226114b4565b5060010190565b600060a0820187835260208781850152604060a08186015282885180855260c087019150838a01945060005b8181101561169f57855180516001600160a01b0390811685528682015181168786015285820151151586860152606091820151169084015294840194608090920191600101611655565b50506001600160a01b038816606087015293506116bb92505050565b8260808301529695505050505050565b600060208083850312156116de57600080fd5b825167ffffffffffffffff8111156116f557600080fd5b8301601f8101851361170657600080fd5b8051611714611432826113c1565b81815260059190911b8201830190838101908783111561173357600080fd5b928401925b82841015610c1657835182529284019290840190611738565b818103818111156114dd576114dd6114b4565b8183823760009101908152919050565b60008251611786818460208701611500565b9190910192915050565b6020815260006114ad602083018461152456fea164736f6c6343000813000a",
  "devdoc": {
    "kind": "dev",
    "methods": {
      "owner()": {
        "details": "Returns the address of the current owner."
      },
      "renounceOwnership()": {
        "details": "Leaves the contract without owner. It will not be possible to call `onlyOwner` functions. Can only be called by the current owner. NOTE: Renouncing ownership will leave the contract without an owner, thereby disabling any functionality that is only available to the owner."
      },
      "transferOwnership(address)": {
        "details": "Transfers ownership of the contract to a new account (`newOwner`). Can only be called by the current owner."
      }
    },
    "version": 1
  },
  "userdoc": {
    "kind": "user",
    "methods": {},
    "version": 1
  },
  "storageLayout": {
    "storage": [
      {
        "astId": 704,
        "contract": "contracts/arbitrage/Arbitrageur.sol:Arbitrageur",
        "label": "_owner",
        "offset": 0,
        "slot": "0",
        "type": "t_address"
      }
    ],
    "types": {
      "t_address": {
        "encoding": "inplace",
        "label": "address",
        "numberOfBytes": "20"
      }
    }
  }
}