{
  "address": "0x83A2f1f4811a52B8f760c58F59340D284390d105",
  "abi": [
    {
      "anonymous": false,
      "inputs": [
        {
          "indexed": true,
          "internalType": "address",
          "name": "previousOwner",
          "type": "address"
        },
        {
          "indexed": true,
          "internalType": "address",
          "name": "newOwner",
          "type": "address"
        }
      ],
      "name": "OwnershipTransferred",
      "type": "event"
    },
    {
      "inputs": [],
      "name": "UNISWAP_V3_SWAP_ROUTER",
      "outputs": [
        {
          "internalType": "address",
          "name": "",
          "type": "address"
        }
      ],
      "stateMutability": "view",
      "type": "function"
    },
    {
      "inputs": [],
      "name": "VELODROME_V2_POOL_FACTORY",
      "outputs": [
        {
          "internalType": "address",
          "name": "",
          "type": "address"
        }
      ],
      "stateMutability": "view",
      "type": "function"
    },
    {
      "inputs": [],
      "name": "VELODROME_V2_ROUTER",
      "outputs": [
        {
          "internalType": "address",
          "name": "",
          "type": "address"
        }
      ],
      "stateMutability": "view",
      "type": "function"
    },
    {
      "inputs": [
        {
          "internalType": "address",
          "name": "token",
          "type": "address"
        },
        {
          "internalType": "address[]",
          "name": "spenders",
          "type": "address[]"
        },
        {
          "internalType": "uint256",
          "name": "amount",
          "type": "uint256"
        }
      ],
      "name": "approveAll",
      "outputs": [],
      "stateMutability": "nonpayable",
      "type": "function"
    },
    {
      "inputs": [
        {
          "internalType": "address",
          "name": "tokenIn",
          "type": "address"
        },
        {
          "internalType": "address",
          "name": "tokenOut",
          "type": "address"
        },
        {
          "internalType": "uint256",
          "name": "amountIn",
          "type": "uint256"
        },
        {
          "internalType": "uint256",
          "name": "minProfit",
          "type": "uint256"
        },
        {
          "internalType": "uint24",
          "name": "uniswapV3Fee",
          "type": "uint24"
        },
        {
          "internalType": "bool",
          "name": "velodromeV2Stable",
          "type": "bool"
        }
      ],
      "name": "arbitrageUniswapV3toVelodromeV2",
      "outputs": [],
      "stateMutability": "nonpayable",
      "type": "function"
    },
    {
      "inputs": [
        {
          "internalType": "address",
          "name": "tokenIn",
          "type": "address"
        },
        {
          "internalType": "address",
          "name": "tokenOut",
          "type": "address"
        },
        {
          "internalType": "uint256",
          "name": "amountIn",
          "type": "uint256"
        },
        {
          "internalType": "uint256",
          "name": "minProfit",
          "type": "uint256"
        },
        {
          "internalType": "uint24",
          "name": "uniswapV3Fee",
          "type": "uint24"
        },
        {
          "internalType": "bool",
          "name": "velodromeV2Stable",
          "type": "bool"
        }
      ],
      "name": "arbitrageVelodromeV2toUniswapV3",
      "outputs": [],
      "stateMutability": "nonpayable",
      "type": "function"
    },
    {
      "inputs": [],
      "name": "owner",
      "outputs": [
        {
          "internalType": "address",
          "name": "",
          "type": "address"
        }
      ],
      "stateMutability": "view",
      "type": "function"
    },
    {
      "inputs": [],
      "name": "renounceOwnership",
      "outputs": [],
      "stateMutability": "nonpayable",
      "type": "function"
    },
    {
      "inputs": [
        {
          "internalType": "address",
          "name": "newOwner",
          "type": "address"
        }
      ],
      "name": "transferOwnership",
      "outputs": [],
      "stateMutability": "nonpayable",
      "type": "function"
    },
    {
      "inputs": [
        {
          "internalType": "address",
          "name": "token",
          "type": "address"
        }
      ],
      "name": "withdrawAll",
      "outputs": [],
      "stateMutability": "nonpayable",
      "type": "function"
    }
  ],
  "transactionHash": "0xfe6ab9bf043c3aba64d420d93c21cffeb5917741f97ec8d0463645adfe7c262f",
  "args": [],
  "numDeployments": 1,
  "solcInputHash": "e61bc393b1fcf8d4a2e63c0701bfe019",
  "bytecode": "0x608060405234801561001057600080fd5b5061001a3361001f565b61006f565b600080546001600160a01b038381166001600160a01b0319831681178455604051919092169283917f8be0079c531659141344cd1fd0a4f28419497f9722a3daafe3b4186f6b6457e09190a35050565b610c348061007e6000396000f3fe608060405234801561001057600080fd5b506004361061009e5760003560e01c80638bb4d739116100665780638bb4d7391461011d5780638da5cb5b14610138578063ea182fca14610149578063f2fde38b14610164578063fa09e6301461017757600080fd5b806314b44482146100a357806340024da9146100b85780635d3747d1146100ef578063715018a6146101025780637cedde611461010a575b600080fd5b6100b66100b136600461089f565b61018a565b005b6100d373f1046053aa5682b4f9a81b5481394da16be5ff5a81565b6040516001600160a01b03909116815260200160405180910390f35b6100b66100fd36600461097e565b610236565b6100b6610301565b6100b661011836600461089f565b610315565b6100d373e592427a0aece92de3edee1f18e0157c0586156481565b6000546001600160a01b03166100d3565b6100d373a062ae8a9c5e11aaa026fc2670b0d65ccc8b285881565b6100b6610172366004610a36565b6103b7565b6100b6610185366004610a36565b610435565b6040516323b872dd60e01b8152336004820152306024820152604481018590526001600160a01b038716906323b872dd906064016020604051808303816000875af11580156101dd573d6000803e3d6000fd5b505050506040513d601f19601f820116820180604052508101906102019190610a58565b50600061021387878760008630610539565b905061022c868883610225888a610a8b565b87336106b9565b5050505050505050565b61023e6107cb565b60005b82518110156102fb57836001600160a01b031663095ea7b384838151811061026b5761026b610aa4565b6020026020010151846040518363ffffffff1660e01b81526004016102a59291906001600160a01b03929092168252602082015260400190565b6020604051808303816000875af11580156102c4573d6000803e3d6000fd5b505050506040513d601f19601f820116820180604052508101906102e89190610a58565b50806102f381610aba565b915050610241565b50505050565b6103096107cb565b6103136000610825565b565b6040516323b872dd60e01b8152336004820152306024820152604481018590526001600160a01b038716906323b872dd906064016020604051808303816000875af1158015610368573d6000803e3d6000fd5b505050506040513d601f19601f8201168201806040525081019061038c9190610a58565b50600061039e878787600087306106b9565b905061022c8688836103b0888a610a8b565b8633610539565b6103bf6107cb565b6001600160a01b0381166104295760405162461bcd60e51b815260206004820152602660248201527f4f776e61626c653a206e6577206f776e657220697320746865207a65726f206160448201526564647265737360d01b60648201526084015b60405180910390fd5b61043281610825565b50565b61043d6107cb565b806001600160a01b031663a9059cbb61045e6000546001600160a01b031690565b6040516370a0823160e01b81523060048201526001600160a01b038516906370a0823190602401602060405180830381865afa1580156104a2573d6000803e3d6000fd5b505050506040513d601f19601f820116820180604052508101906104c69190610ad3565b6040516001600160e01b031960e085901b1681526001600160a01b03909216600483015260248201526044016020604051808303816000875af1158015610511573d6000803e3d6000fd5b505050506040513d601f19601f820116820180604052508101906105359190610a58565b5050565b604080516001808252818301909252600091829190816020015b6040805160808101825260008082526020808301829052928201819052606082015282526000199092019101816105535790505090506040518060800160405280896001600160a01b03168152602001886001600160a01b03168152602001851515815260200173f1046053aa5682b4f9a81b5481394da16be5ff5a6001600160a01b0316815250816000815181106105ee576105ee610aa4565b602090810291909101015260405163cac88ea960e01b815260009073a062ae8a9c5e11aaa026fc2670b0d65ccc8b28589063cac88ea99061063b908a908a9087908a904290600401610aec565b6000604051808303816000875af115801561065a573d6000803e3d6000fd5b505050506040513d6000823e601f3d908101601f191682016040526106829190810190610b8e565b905080600182516106939190610c14565b815181106106a3576106a3610aa4565b6020026020010151925050509695505050505050565b60408051610100810182526001600160a01b0388811682528781166020830190815262ffffff86811684860190815286841660608601908152426080870190815260a087018c815260c088018c8152600060e08a018181529a5163414bf38960e01b81529951891660048b01529651881660248a015293519094166044880152905185166064870152516084860152905160a48501525160c484015292511660e482015273e592427a0aece92de3edee1f18e0157c058615649063414bf38990610104016020604051808303816000875af115801561079c573d6000803e3d6000fd5b505050506040513d601f19601f820116820180604052508101906107c09190610ad3565b979650505050505050565b6000546001600160a01b031633146103135760405162461bcd60e51b815260206004820181905260248201527f4f776e61626c653a2063616c6c6572206973206e6f7420746865206f776e65726044820152606401610420565b600080546001600160a01b038381166001600160a01b0319831681178455604051919092169283917f8be0079c531659141344cd1fd0a4f28419497f9722a3daafe3b4186f6b6457e09190a35050565b80356001600160a01b038116811461088c57600080fd5b919050565b801515811461043257600080fd5b60008060008060008060c087890312156108b857600080fd5b6108c187610875565b95506108cf60208801610875565b94506040870135935060608701359250608087013562ffffff811681146108f557600080fd5b915060a087013561090581610891565b809150509295509295509295565b634e487b7160e01b600052604160045260246000fd5b604051601f8201601f1916810167ffffffffffffffff8111828210171561095257610952610913565b604052919050565b600067ffffffffffffffff82111561097457610974610913565b5060051b60200190565b60008060006060848603121561099357600080fd5b61099c84610875565b925060208085013567ffffffffffffffff8111156109b957600080fd5b8501601f810187136109ca57600080fd5b80356109dd6109d88261095a565b610929565b81815260059190911b820183019083810190898311156109fc57600080fd5b928401925b82841015610a2157610a1284610875565b82529284019290840190610a01565b96999698505050506040949094013593505050565b600060208284031215610a4857600080fd5b610a5182610875565b9392505050565b600060208284031215610a6a57600080fd5b8151610a5181610891565b634e487b7160e01b600052601160045260246000fd5b80820180821115610a9e57610a9e610a75565b92915050565b634e487b7160e01b600052603260045260246000fd5b600060018201610acc57610acc610a75565b5060010190565b600060208284031215610ae557600080fd5b5051919050565b600060a0820187835260208781850152604060a08186015282885180855260c087019150838a01945060005b81811015610b6257855180516001600160a01b0390811685528682015181168786015285820151151586860152606091820151169084015294840194608090920191600101610b18565b50506001600160a01b03881660608701529350610b7e92505050565b8260808301529695505050505050565b60006020808385031215610ba157600080fd5b825167ffffffffffffffff811115610bb857600080fd5b8301601f81018513610bc957600080fd5b8051610bd76109d88261095a565b81815260059190911b82018301908381019087831115610bf657600080fd5b928401925b828410156107c057835182529284019290840190610bfb565b81810381811115610a9e57610a9e610a7556fea164736f6c6343000813000a",
  "devdoc": {
    "kind": "dev",
    "methods": {
      "owner()": {
        "details": "Returns the address of the current owner."
      },
      "renounceOwnership()": {
        "details": "Leaves the contract without owner. It will not be possible to call `onlyOwner` functions. Can only be called by the current owner. NOTE: Renouncing ownership will leave the contract without an owner, thereby disabling any functionality that is only available to the owner."
      },
      "transferOwnership(address)": {
        "details": "Transfers ownership of the contract to a new account (`newOwner`). Can only be called by the current owner."
      }
    },
    "version": 1
  },
  "userdoc": {
    "kind": "user",
    "methods": {},
    "version": 1
  },
  "storageLayout": {
    "storage": [
      {
        "astId": 828,
        "contract": "contracts/arbitrage/ArbitrageurLite.sol:ArbitrageurLite",
        "label": "_owner",
        "offset": 0,
        "slot": "0",
        "type": "t_address"
      }
    ],
    "types": {
      "t_address": {
        "encoding": "inplace",
        "label": "address",
        "numberOfBytes": "20"
      }
    }
  }
}