{
  "address": "0xd7abf71271f044fF1d630210Bb39440692355Ab6",
  "abi": [
    {
      "inputs": [
        {
          "internalType": "address",
          "name": "ownerArg",
          "type": "address"
        }
      ],
      "stateMutability": "nonpayable",
      "type": "constructor"
    },
    {
      "inputs": [],
      "name": "InvalidBranch",
      "type": "error"
    },
    {
      "inputs": [],
      "name": "InvalidCaller",
      "type": "error"
    },
    {
      "inputs": [],
      "name": "NoProfit",
      "type": "error"
    },
    {
      "anonymous": false,
      "inputs": [
        {
          "indexed": true,
          "internalType": "address",
          "name": "user",
          "type": "address"
        },
        {
          "indexed": true,
          "internalType": "address",
          "name": "newOwner",
          "type": "address"
        }
      ],
      "name": "OwnershipTransferred",
      "type": "event"
    },
    {
      "inputs": [
        {
          "internalType": "bytes",
          "name": "path",
          "type": "bytes"
        },
        {
          "internalType": "address[]",
          "name": "tokens",
          "type": "address[]"
        },
        {
          "internalType": "address",
          "name": "tokenIn",
          "type": "address"
        },
        {
          "internalType": "uint256",
          "name": "amountIn",
          "type": "uint256"
        },
        {
          "internalType": "uint256",
          "name": "minProfit",
          "type": "uint256"
        },
        {
          "internalType": "enum ArbitrageFunc",
          "name": "arbitrageFunc",
          "type": "uint8"
        }
      ],
      "name": "arbitrage",
      "outputs": [
        {
          "internalType": "uint256",
          "name": "",
          "type": "uint256"
        }
      ],
      "stateMutability": "nonpayable",
      "type": "function"
    },
    {
      "inputs": [],
      "name": "owner",
      "outputs": [
        {
          "internalType": "address",
          "name": "",
          "type": "address"
        }
      ],
      "stateMutability": "view",
      "type": "function"
    },
    {
      "inputs": [
        {
          "internalType": "address[]",
          "name": "tokens",
          "type": "address[]"
        },
        {
          "internalType": "uint256[]",
          "name": "amounts",
          "type": "uint256[]"
        },
        {
          "internalType": "uint256[]",
          "name": "feeAmounts",
          "type": "uint256[]"
        },
        {
          "internalType": "bytes",
          "name": "userData",
          "type": "bytes"
        }
      ],
      "name": "receiveFlashLoan",
      "outputs": [],
      "stateMutability": "nonpayable",
      "type": "function"
    },
    {
      "inputs": [
        {
          "internalType": "address",
          "name": "newOwner",
          "type": "address"
        }
      ],
      "name": "transferOwnership",
      "outputs": [],
      "stateMutability": "nonpayable",
      "type": "function"
    },
    {
      "inputs": [
        {
          "internalType": "address",
          "name": "token",
          "type": "address"
        }
      ],
      "name": "withdrawAll",
      "outputs": [],
      "stateMutability": "nonpayable",
      "type": "function"
    }
  ],
  "transactionHash": "0x0cf73ea0737438f9eec812d8b13d29e0756bbe313dec03d095cf3b56b8c77ca4",
  "args": [
    "0x29c275155E60AfB978063840B7Cd80EAcF6F96CB"
  ],
  "numDeployments": 1,
  "solcInputHash": "bf05b1770c51ed834d3113594b5ee369",
  "bytecode": "0x608060405234801561001057600080fd5b5060405161146238038061146283398101604081905261002f91610081565b600080546001600160a01b0319166001600160a01b038316908117825560405183928392917f8be0079c531659141344cd1fd0a4f28419497f9722a3daafe3b4186f6b6457e0908290a35050506100b1565b60006020828403121561009357600080fd5b81516001600160a01b03811681146100aa57600080fd5b9392505050565b6113a2806100c06000396000f3fe608060405234801561001057600080fd5b50600436106100575760003560e01c80634725150e1461005c5780638da5cb5b14610082578063f04f2707146100ad578063f2fde38b146100c2578063fa09e630146100d5575b600080fd5b61006f61006a366004610c69565b6100e8565b6040519081526020015b60405180910390f35b600054610095906001600160a01b031681565b6040516001600160a01b039091168152602001610079565b6100c06100bb366004610d61565b610231565b005b6100c06100d0366004610e0e565b610403565b6100c06100e3366004610e0e565b61049c565b6040516370a0823160e01b815230600482015260009081906001600160a01b038716906370a0823190602401602060405180830381865afa158015610131573d6000803e3d6000fd5b505050506040513d601f19601f820116820180604052508101906101559190610e32565b90506101b1868660405180608001604052808c81526020018b815260200188815260200187600381111561018b5761018b610e4b565b905260405161019d9190602001610ef5565b6040516020818303038152906040526105cf565b6040516370a0823160e01b815230600482015281906001600160a01b038816906370a0823190602401602060405180830381865afa1580156101f7573d6000803e3d6000fd5b505050506040513d601f19601f8201168201806040525081019061021b9190610e32565b6102259190610f84565b98975050505050505050565b3373ba12222222228d8ba445958a75a0704d566bf2c814610265576040516348f5c3ed60e01b815260040160405180910390fd5b60008180602001905181019061027b9190611011565b9050600085600081518110610292576102926110f4565b602002602001015190506000856000815181106102b1576102b16110f4565b602002602001015190506000856000815181106102d0576102d06110f4565b6020908102919091010151606085015190915060008160038111156102f7576102f7610e4b565b03610315576103108560000151858588604001516106d7565b61035a565b600181600381111561032957610329610e4b565b03610341576103108560200151848760400151610821565b60405163788be9a160e11b815260040160405180910390fd5b6001600160a01b03841663a9059cbb73ba12222222228d8ba445958a75a0704d566bf2c8610388858761110a565b6040516001600160e01b031960e085901b1681526001600160a01b03909216600483015260248201526044016020604051808303816000875af11580156103d3573d6000803e3d6000fd5b505050506040513d601f19601f820116820180604052508101906103f7919061111d565b50505050505050505050565b6000546001600160a01b031633146104515760405162461bcd60e51b815260206004820152600c60248201526b15539055551213d49256915160a21b60448201526064015b60405180910390fd5b600080546001600160a01b0319166001600160a01b0383169081178255604051909133917f8be0079c531659141344cd1fd0a4f28419497f9722a3daafe3b4186f6b6457e09190a350565b6000546001600160a01b031633146104e55760405162461bcd60e51b815260206004820152600c60248201526b15539055551213d49256915160a21b6044820152606401610448565b6000546040516370a0823160e01b81523060048201526001600160a01b038381169263a9059cbb9291169083906370a0823190602401602060405180830381865afa158015610538573d6000803e3d6000fd5b505050506040513d601f19601f8201168201806040525081019061055c9190610e32565b6040516001600160e01b031960e085901b1681526001600160a01b03909216600483015260248201526044016020604051808303816000875af11580156105a7573d6000803e3d6000fd5b505050506040513d601f19601f820116820180604052508101906105cb919061111d565b5050565b604080516001808252818301909252600091602080830190803683370190505090508381600081518110610605576106056110f4565b6001600160a01b0392909216602092830291909101909101526040805160018082528183019092526000918160200160208202803683370190505090508381600081518110610656576106566110f4565b6020908102919091010152604051632e1c224f60e11b815273ba12222222228d8ba445958a75a0704d566bf2c890635c38449e9061069e90309086908690899060040161113f565b600060405180830381600087803b1580156106b857600080fd5b505af11580156106cc573d6000803e3d6000fd5b505050505050505050565b60405163095ea7b360e01b815273e592427a0aece92de3edee1f18e0157c058615646004820152602481018390526001600160a01b0384169063095ea7b3906044016020604051808303816000875af1158015610738573d6000803e3d6000fd5b505050506040513d601f19601f8201168201806040525081019061075c919061111d565b5073e592427a0aece92de3edee1f18e0157c058615646001600160a01b031663c04b8d596040518060a00160405280878152602001306001600160a01b0316815260200142815260200185815260200184866107b8919061110a565b8152506040518263ffffffff1660e01b81526004016107d791906111b8565b6020604051808303816000875af11580156107f6573d6000803e3d6000fd5b505050506040513d601f19601f8201168201806040525081019061081a9190610e32565b5050505050565b82600081518110610834576108346110f4565b602090810291909101015160405163095ea7b360e01b815273a062ae8a9c5e11aaa026fc2670b0d65ccc8b28586004820152602481018490526001600160a01b039091169063095ea7b3906044016020604051808303816000875af11580156108a1573d6000803e3d6000fd5b505050506040513d601f19601f820116820180604052508101906108c5919061111d565b506000600284516108d69190611210565b905060008167ffffffffffffffff8111156108f3576108f3610ac3565b60405190808252806020026020018201604052801561094557816020015b6040805160808101825260008082526020808301829052928201819052606082015282526000199092019101816109115790505b50905060005b82811015610a2b5760405180608001604052808783600261096c9190611232565b8151811061097c5761097c6110f4565b60200260200101516001600160a01b03168152602001878360026109a09190611232565b6109ab90600161110a565b815181106109bb576109bb6110f4565b60200260200101516001600160a01b0316815260200160001515815260200173f1046053aa5682b4f9a81b5481394da16be5ff5a6001600160a01b0316815250828281518110610a0d57610a0d6110f4565b60200260200101819052508080610a2390611249565b91505061094b565b5073a062ae8a9c5e11aaa026fc2670b0d65ccc8b285863cac88ea985610a51868261110a565b8430426040518663ffffffff1660e01b8152600401610a74959493929190611262565b6000604051808303816000875af1158015610a93573d6000803e3d6000fd5b505050506040513d6000823e601f3d908101601f19168201604052610abb9190810190611304565b505050505050565b634e487b7160e01b600052604160045260246000fd5b6040516080810167ffffffffffffffff81118282101715610afc57610afc610ac3565b60405290565b604051601f8201601f1916810167ffffffffffffffff81118282101715610b2b57610b2b610ac3565b604052919050565b600067ffffffffffffffff821115610b4d57610b4d610ac3565b50601f01601f191660200190565b600082601f830112610b6c57600080fd5b8135610b7f610b7a82610b33565b610b02565b818152846020838601011115610b9457600080fd5b816020850160208301376000918101602001919091529392505050565b600067ffffffffffffffff821115610bcb57610bcb610ac3565b5060051b60200190565b6001600160a01b0381168114610bea57600080fd5b50565b600082601f830112610bfe57600080fd5b81356020610c0e610b7a83610bb1565b82815260059290921b84018101918181019086841115610c2d57600080fd5b8286015b84811015610c51578035610c4481610bd5565b8352918301918301610c31565b509695505050505050565b60048110610bea57600080fd5b60008060008060008060c08789031215610c8257600080fd5b863567ffffffffffffffff80821115610c9a57600080fd5b610ca68a838b01610b5b565b97506020890135915080821115610cbc57600080fd5b50610cc989828a01610bed565b9550506040870135610cda81610bd5565b9350606087013592506080870135915060a0870135610cf881610c5c565b809150509295509295509295565b600082601f830112610d1757600080fd5b81356020610d27610b7a83610bb1565b82815260059290921b84018101918181019086841115610d4657600080fd5b8286015b84811015610c515780358352918301918301610d4a565b60008060008060808587031215610d7757600080fd5b843567ffffffffffffffff80821115610d8f57600080fd5b610d9b88838901610bed565b95506020870135915080821115610db157600080fd5b610dbd88838901610d06565b94506040870135915080821115610dd357600080fd5b610ddf88838901610d06565b93506060870135915080821115610df557600080fd5b50610e0287828801610b5b565b91505092959194509250565b600060208284031215610e2057600080fd5b8135610e2b81610bd5565b9392505050565b600060208284031215610e4457600080fd5b5051919050565b634e487b7160e01b600052602160045260246000fd5b60005b83811015610e7c578181015183820152602001610e64565b50506000910152565b60008151808452610e9d816020860160208601610e61565b601f01601f19169290920160200192915050565b600081518084526020808501945080840160005b83811015610eea5781516001600160a01b031687529582019590820190600101610ec5565b509495945050505050565b602081526000825160806020840152610f1160a0840182610e85565b90506020840151601f19848303016040850152610f2e8282610eb1565b91505060408401516060840152606084015160048110610f5e57634e487b7160e01b600052602160045260246000fd5b6080939093019290925250919050565b634e487b7160e01b600052601160045260246000fd5b81810381811115610f9757610f97610f6e565b92915050565b600082601f830112610fae57600080fd5b81516020610fbe610b7a83610bb1565b82815260059290921b84018101918181019086841115610fdd57600080fd5b8286015b84811015610c51578051610ff481610bd5565b8352918301918301610fe1565b805161100c81610c5c565b919050565b6000602080838503121561102457600080fd5b825167ffffffffffffffff8082111561103c57600080fd5b908401906080828703121561105057600080fd5b611058610ad9565b82518281111561106757600080fd5b8301601f8101881361107857600080fd5b8051611086610b7a82610b33565b818152898783850101111561109a57600080fd5b6110a982888301898601610e61565b8352505082840151828111156110be57600080fd5b6110ca88828601610f9d565b8583015250604083015160408201526110e560608401611001565b60608201529695505050505050565b634e487b7160e01b600052603260045260246000fd5b80820180821115610f9757610f97610f6e565b60006020828403121561112f57600080fd5b81518015158114610e2b57600080fd5b6001600160a01b03851681526080602080830182905260009161116490840187610eb1565b838103604085015285518082528287019183019060005b818110156111975783518352928401929184019160010161117b565b505084810360608601526111ab8187610e85565b9998505050505050505050565b602081526000825160a060208401526111d460c0840182610e85565b905060018060a01b0360208501511660408401526040840151606084015260608401516080840152608084015160a08401528091505092915050565b60008261122d57634e487b7160e01b600052601260045260246000fd5b500490565b8082028115828204841417610f9757610f97610f6e565b60006001820161125b5761125b610f6e565b5060010190565b600060a0820187835260208781850152604060a08186015282885180855260c087019150838a01945060005b818110156112d857855180516001600160a01b039081168552868201518116878601528582015115158686015260609182015116908401529484019460809092019160010161128e565b50506001600160a01b038816606087015293506112f492505050565b8260808301529695505050505050565b6000602080838503121561131757600080fd5b825167ffffffffffffffff81111561132e57600080fd5b8301601f8101851361133f57600080fd5b805161134d610b7a82610bb1565b81815260059190911b8201830190838101908783111561136c57600080fd5b928401925b8284101561138a57835182529284019290840190611371565b97965050505050505056fea164736f6c6343000813000a",
  "devdoc": {
    "kind": "dev",
    "methods": {},
    "version": 1
  },
  "userdoc": {
    "kind": "user",
    "methods": {},
    "version": 1
  },
  "storageLayout": {
    "storage": [
      {
        "astId": 1767,
        "contract": "contracts/arbitrage/FlashTriangularArbitrageur.sol:FlashTriangularArbitrageur",
        "label": "owner",
        "offset": 0,
        "slot": "0",
        "type": "t_address"
      }
    ],
    "types": {
      "t_address": {
        "encoding": "inplace",
        "label": "address",
        "numberOfBytes": "20"
      }
    }
  }
}