{
  "address": "0x2e5806229d087A61F839fcBCc583c0F9DA7be6A4",
  "abi": [
    {
      "inputs": [],
      "name": "InvalidBranch",
      "type": "error"
    },
    {
      "inputs": [],
      "name": "InvalidCaller",
      "type": "error"
    },
    {
      "inputs": [],
      "name": "NoProfit",
      "type": "error"
    },
    {
      "inputs": [],
      "name": "OneInchSwapFail",
      "type": "error"
    },
    {
      "anonymous": false,
      "inputs": [
        {
          "indexed": true,
          "internalType": "address",
          "name": "user",
          "type": "address"
        },
        {
          "indexed": true,
          "internalType": "address",
          "name": "newOwner",
          "type": "address"
        }
      ],
      "name": "OwnershipTransferred",
      "type": "event"
    },
    {
      "inputs": [
        {
          "internalType": "address",
          "name": "borrowFromPool",
          "type": "address"
        },
        {
          "internalType": "address",
          "name": "tokenIn",
          "type": "address"
        },
        {
          "internalType": "address",
          "name": "tokenOut",
          "type": "address"
        },
        {
          "internalType": "uint256",
          "name": "amountIn",
          "type": "uint256"
        },
        {
          "internalType": "uint256",
          "name": "minProfit",
          "type": "uint256"
        },
        {
          "internalType": "bytes",
          "name": "oneInchData",
          "type": "bytes"
        }
      ],
      "name": "arbitrage",
      "outputs": [],
      "stateMutability": "nonpayable",
      "type": "function"
    },
    {
      "inputs": [],
      "name": "owner",
      "outputs": [
        {
          "internalType": "address",
          "name": "",
          "type": "address"
        }
      ],
      "stateMutability": "view",
      "type": "function"
    },
    {
      "inputs": [
        {
          "internalType": "address",
          "name": "newOwner",
          "type": "address"
        }
      ],
      "name": "transferOwnership",
      "outputs": [],
      "stateMutability": "nonpayable",
      "type": "function"
    },
    {
      "inputs": [
        {
          "internalType": "int256",
          "name": "amount0",
          "type": "int256"
        },
        {
          "internalType": "int256",
          "name": "amount1",
          "type": "int256"
        },
        {
          "internalType": "bytes",
          "name": "data",
          "type": "bytes"
        }
      ],
      "name": "uniswapV3SwapCallback",
      "outputs": [],
      "stateMutability": "nonpayable",
      "type": "function"
    },
    {
      "inputs": [
        {
          "internalType": "address",
          "name": "token",
          "type": "address"
        }
      ],
      "name": "withdrawAll",
      "outputs": [],
      "stateMutability": "nonpayable",
      "type": "function"
    }
  ],
  "transactionHash": "0x4a6794c49dec03537e5fb56e1840ee45ab7de6565c5edd87d9075e0335ed8e2d",
  "args": [],
  "numDeployments": 1,
  "solcInputHash": "deb59bf0b7f77d9f5ccc50f01a291f39",
  "bytecode": "0x608060405234801561001057600080fd5b50600080546001600160a01b031916339081178255604051909182917f8be0079c531659141344cd1fd0a4f28419497f9722a3daafe3b4186f6b6457e0908290a350610d1b806100616000396000f3fe608060405234801561001057600080fd5b50600436106100575760003560e01c8063583777421461005c5780638da5cb5b14610071578063f2fde38b146100a0578063fa09e630146100b3578063fa461e33146100c6575b600080fd5b61006f61006a366004610864565b6100d9565b005b600054610084906001600160a01b031681565b6040516001600160a01b03909116815260200160405180910390f35b61006f6100ae3660046108ed565b610198565b61006f6100c13660046108ed565b610231565b61006f6100d436600461090f565b610364565b61018f878787876040518060e00160405280336001600160a01b031681526020018d6001600160a01b031681526020018c6001600160a01b031681526020018b6001600160a01b031681526020018a815260200189815260200188888080601f016020809104026020016040519081016040528093929190818152602001838380828437600092019190915250505091525060405161017b91906020016109b2565b604051602081830303815290604052610536565b50505050505050565b6000546001600160a01b031633146101e65760405162461bcd60e51b815260206004820152600c60248201526b15539055551213d49256915160a21b60448201526064015b60405180910390fd5b600080546001600160a01b0319166001600160a01b0383169081178255604051909133917f8be0079c531659141344cd1fd0a4f28419497f9722a3daafe3b4186f6b6457e09190a350565b6000546001600160a01b0316331461027a5760405162461bcd60e51b815260206004820152600c60248201526b15539055551213d49256915160a21b60448201526064016101dd565b6000546040516370a0823160e01b81523060048201526001600160a01b038381169263a9059cbb9291169083906370a0823190602401602060405180830381865afa1580156102cd573d6000803e3d6000fd5b505050506040513d601f19601f820116820180604052508101906102f19190610a22565b6040516001600160e01b031960e085901b1681526001600160a01b03909216600483015260248201526044016020604051808303816000875af115801561033c573d6000803e3d6000fd5b505050506040513d601f19601f820116820180604052508101906103609190610a3b565b5050565b600061037282840184610b29565b6020810151909150336001600160a01b038216146103a3576040516348f5c3ed60e01b815260040160405180910390fd5b60408201516060830151608084015160a085015160006001600160a01b03808516908616106103da576103d58b610c04565b6103e3565b6103e38a610c04565b905060006103f78587848b60c001516105f6565b90506104038385610c20565b811061050f5760405163a9059cbb60e01b81526001600160a01b0388811660048301526024820186905287169063a9059cbb906044016020604051808303816000875af1158015610458573d6000803e3d6000fd5b505050506040513d601f19601f8201168201806040525081019061047c9190610a3b565b5087516001600160a01b0387169063a9059cbb9061049a8785610c39565b6040516001600160e01b031960e085901b1681526001600160a01b03909216600483015260248201526044016020604051808303816000875af11580156104e5573d6000803e3d6000fd5b505050506040513d601f19601f820116820180604052508101906105099190610a3b565b50610528565b6040516371cd57f760e11b815260040160405180910390fd5b505050505050505050505050565b6001600160a01b038084168582161090861663128acb083083868161057957610574600173fffd8963efd1fc6a506488495d951d5263988d26610c4c565b610589565b6105896401000276a36001610c73565b876040518663ffffffff1660e01b81526004016105aa959493929190610c93565b60408051808303816000875af11580156105c8573d6000803e3d6000fd5b505050506040513d601f19601f820116820180604052508101906105ec9190610cce565b5050505050505050565b60405163095ea7b360e01b8152731111111254eeb25477b68fb85ed929f73a9605826004820152602481018390526000906001600160a01b0386169063095ea7b3906044016020604051808303816000875af115801561065a573d6000803e3d6000fd5b505050506040513d601f19601f8201168201806040525081019061067e9190610a3b565b506040516370a0823160e01b81523060048201526000906001600160a01b038616906370a0823190602401602060405180830381865afa1580156106c6573d6000803e3d6000fd5b505050506040513d601f19601f820116820180604052508101906106ea9190610a22565b90506000731111111254eeb25477b68fb85ed929f73a9605826001600160a01b031660008560405161071c9190610cf2565b60006040518083038185875af1925050503d8060008114610759576040519150601f19603f3d011682016040523d82523d6000602084013e61075e565b606091505b50509050806107805760405163152ac36d60e01b815260040160405180910390fd5b6040516370a0823160e01b815230600482015282906001600160a01b038816906370a0823190602401602060405180830381865afa1580156107c6573d6000803e3d6000fd5b505050506040513d601f19601f820116820180604052508101906107ea9190610a22565b6107f49190610c39565b979650505050505050565b80356001600160a01b038116811461081657600080fd5b919050565b60008083601f84011261082d57600080fd5b50813567ffffffffffffffff81111561084557600080fd5b60208301915083602082850101111561085d57600080fd5b9250929050565b600080600080600080600060c0888a03121561087f57600080fd5b610888886107ff565b9650610896602089016107ff565b95506108a4604089016107ff565b9450606088013593506080880135925060a088013567ffffffffffffffff8111156108ce57600080fd5b6108da8a828b0161081b565b989b979a50959850939692959293505050565b6000602082840312156108ff57600080fd5b610908826107ff565b9392505050565b6000806000806060858703121561092557600080fd5b8435935060208501359250604085013567ffffffffffffffff81111561094a57600080fd5b6109568782880161081b565b95989497509550505050565b60005b8381101561097d578181015183820152602001610965565b50506000910152565b6000815180845261099e816020860160208601610962565b601f01601f19169290920160200192915050565b60208152600060018060a01b0380845116602084015280602085015116604084015280604085015116606084015280606085015116608084015250608083015160a083015260a083015160c083015260c083015160e080840152610a1a610100840182610986565b949350505050565b600060208284031215610a3457600080fd5b5051919050565b600060208284031215610a4d57600080fd5b8151801515811461090857600080fd5b634e487b7160e01b600052604160045260246000fd5b60405160e0810167ffffffffffffffff81118282101715610a9657610a96610a5d565b60405290565b600082601f830112610aad57600080fd5b813567ffffffffffffffff80821115610ac857610ac8610a5d565b604051601f8301601f19908116603f01168101908282118183101715610af057610af0610a5d565b81604052838152866020858801011115610b0957600080fd5b836020870160208301376000602085830101528094505050505092915050565b600060208284031215610b3b57600080fd5b813567ffffffffffffffff80821115610b5357600080fd5b9083019060e08286031215610b6757600080fd5b610b6f610a73565b610b78836107ff565b8152610b86602084016107ff565b6020820152610b97604084016107ff565b6040820152610ba8606084016107ff565b60608201526080830135608082015260a083013560a082015260c083013582811115610bd357600080fd5b610bdf87828601610a9c565b60c08301525095945050505050565b634e487b7160e01b600052601160045260246000fd5b6000600160ff1b8201610c1957610c19610bee565b5060000390565b80820180821115610c3357610c33610bee565b92915050565b81810381811115610c3357610c33610bee565b6001600160a01b03828116828216039080821115610c6c57610c6c610bee565b5092915050565b6001600160a01b03818116838216019080821115610c6c57610c6c610bee565b6001600160a01b0386811682528515156020830152604082018590528316606082015260a0608082018190526000906107f490830184610986565b60008060408385031215610ce157600080fd5b505080516020909101519092909150565b60008251610d04818460208701610962565b919091019291505056fea164736f6c6343000813000a",
  "devdoc": {
    "kind": "dev",
    "methods": {},
    "version": 1
  },
  "userdoc": {
    "kind": "user",
    "methods": {},
    "version": 1
  },
  "storageLayout": {
    "storage": [
      {
        "astId": 1284,
        "contract": "contracts/arbitrage/FlashAggregateArbitrageur.sol:FlashAggregateArbitrageur",
        "label": "owner",
        "offset": 0,
        "slot": "0",
        "type": "t_address"
      }
    ],
    "types": {
      "t_address": {
        "encoding": "inplace",
        "label": "address",
        "numberOfBytes": "20"
      }
    }
  }
}