{
  "address": "0x1B94b30091496FcB5B88AF8dc30fD417ccc59C2f",
  "abi": [
    {
      "inputs": [
        {
          "internalType": "address",
          "name": "ownerArg",
          "type": "address"
        }
      ],
      "stateMutability": "nonpayable",
      "type": "constructor"
    },
    {
      "inputs": [],
      "name": "InvalidBranch",
      "type": "error"
    },
    {
      "inputs": [],
      "name": "InvalidCaller",
      "type": "error"
    },
    {
      "inputs": [],
      "name": "NoProfit",
      "type": "error"
    },
    {
      "anonymous": false,
      "inputs": [
        {
          "indexed": true,
          "internalType": "address",
          "name": "user",
          "type": "address"
        },
        {
          "indexed": true,
          "internalType": "address",
          "name": "newOwner",
          "type": "address"
        }
      ],
      "name": "OwnershipTransferred",
      "type": "event"
    },
    {
      "inputs": [],
      "name": "WOOFI_V2_ROUTER",
      "outputs": [
        {
          "internalType": "address",
          "name": "",
          "type": "address"
        }
      ],
      "stateMutability": "view",
      "type": "function"
    },
    {
      "inputs": [
        {
          "internalType": "address",
          "name": "borrowFromPool",
          "type": "address"
        },
        {
          "internalType": "address",
          "name": "tokenIn",
          "type": "address"
        },
        {
          "internalType": "address",
          "name": "tokenOut",
          "type": "address"
        },
        {
          "internalType": "uint256",
          "name": "amountIn",
          "type": "uint256"
        },
        {
          "internalType": "uint256",
          "name": "minProfit",
          "type": "uint256"
        },
        {
          "internalType": "enum ArbitrageFunc",
          "name": "secondArbitrageFunc",
          "type": "uint8"
        }
      ],
      "name": "arbitrage",
      "outputs": [
        {
          "internalType": "uint256",
          "name": "",
          "type": "uint256"
        }
      ],
      "stateMutability": "nonpayable",
      "type": "function"
    },
    {
      "inputs": [],
      "name": "owner",
      "outputs": [
        {
          "internalType": "address",
          "name": "",
          "type": "address"
        }
      ],
      "stateMutability": "view",
      "type": "function"
    },
    {
      "inputs": [
        {
          "internalType": "address",
          "name": "newOwner",
          "type": "address"
        }
      ],
      "name": "transferOwnership",
      "outputs": [],
      "stateMutability": "nonpayable",
      "type": "function"
    },
    {
      "inputs": [
        {
          "internalType": "int256",
          "name": "amount0",
          "type": "int256"
        },
        {
          "internalType": "int256",
          "name": "amount1",
          "type": "int256"
        },
        {
          "internalType": "bytes",
          "name": "data",
          "type": "bytes"
        }
      ],
      "name": "uniswapV3SwapCallback",
      "outputs": [],
      "stateMutability": "nonpayable",
      "type": "function"
    },
    {
      "inputs": [
        {
          "internalType": "address",
          "name": "token",
          "type": "address"
        }
      ],
      "name": "withdrawAll",
      "outputs": [],
      "stateMutability": "nonpayable",
      "type": "function"
    }
  ],
  "transactionHash": "0x61a6573126125b2e2afd971ef8b39f71ab03105c2db84785e841bce8a39c36cd",
  "args": [
    "0xDBc2D0DD30313470e8134d0d1D33793700756c76"
  ],
  "numDeployments": 4,
  "solcInputHash": "bf05b1770c51ed834d3113594b5ee369",
  "bytecode": "0x608060405234801561001057600080fd5b5060405161130238038061130283398101604081905261002f91610081565b600080546001600160a01b0319166001600160a01b038316908117825560405183928392917f8be0079c531659141344cd1fd0a4f28419497f9722a3daafe3b4186f6b6457e0908290a35050506100b1565b60006020828403121561009357600080fd5b81516001600160a01b03811681146100aa57600080fd5b9392505050565b611242806100c06000396000f3fe608060405234801561001057600080fd5b50600436106100625760003560e01c80634bff5b101461006757806370dcb9f91461009f5780638da5cb5b146100c0578063f2fde38b146100d3578063fa09e630146100e8578063fa461e33146100fb575b600080fd5b61008273eaf1ac8e89ea0ae13e0f03634a4ff2350252702481565b6040516001600160a01b0390911681526020015b60405180910390f35b6100b26100ad366004610c77565b61010e565b604051908152602001610096565b600054610082906001600160a01b031681565b6100e66100e1366004610cdd565b61028f565b005b6100e66100f6366004610cdd565b610328565b6100e6610109366004610cff565b61045b565b6040516370a0823160e01b815230600482015260009081906001600160a01b038816906370a0823190602401602060405180830381865afa158015610157573d6000803e3d6000fd5b505050506040513d601f19601f8201168201806040525081019061017b9190610d7f565b905061020f888888886040518060e00160405280336001600160a01b031681526020018e6001600160a01b031681526020018d6001600160a01b031681526020018c6001600160a01b031681526020018b81526020018a81526020018960038111156101e9576101e9610d98565b90526040516101fb9190602001610dae565b60405160208183030381529060405261061c565b6040516370a0823160e01b815230600482015281906001600160a01b038916906370a0823190602401602060405180830381865afa158015610255573d6000803e3d6000fd5b505050506040513d601f19601f820116820180604052508101906102799190610d7f565b6102839190610e42565b98975050505050505050565b6000546001600160a01b031633146102dd5760405162461bcd60e51b815260206004820152600c60248201526b15539055551213d49256915160a21b60448201526064015b60405180910390fd5b600080546001600160a01b0319166001600160a01b0383169081178255604051909133917f8be0079c531659141344cd1fd0a4f28419497f9722a3daafe3b4186f6b6457e09190a350565b6000546001600160a01b031633146103715760405162461bcd60e51b815260206004820152600c60248201526b15539055551213d49256915160a21b60448201526064016102d4565b6000546040516370a0823160e01b81523060048201526001600160a01b038381169263a9059cbb9291169083906370a0823190602401602060405180830381865afa1580156103c4573d6000803e3d6000fd5b505050506040513d601f19601f820116820180604052508101906103e89190610d7f565b6040516001600160e01b031960e085901b1681526001600160a01b03909216600483015260248201526044016020604051808303816000875af1158015610433573d6000803e3d6000fd5b505050506040513d601f19601f820116820180604052508101906104579190610e5b565b5050565b600061046982840184610ec4565b6020810151909150336001600160a01b0382161461049a576040516348f5c3ed60e01b815260040160405180910390fd5b60408201516060830151608084015160a085015160c086015130949392919060006001600160a01b03808616908716106104dc576104d78d610f66565b6104e5565b6104e58c610f66565b9050600060018360038111156104fd576104fd610d98565b036105215761051a868884610512888a610f82565b60008d6106dc565b9050610598565b600283600381111561053557610535610d98565b036105505761051a86888461054a888a610f82565b8c6108e2565b600383600381111561056457610564610d98565b0361057f5761051a868884610579888a610f82565b8c610a18565b60405163788be9a160e11b815260040160405180910390fd5b60405163a9059cbb60e01b81526001600160a01b038a811660048301526024820187905288169063a9059cbb906044016020604051808303816000875af11580156105e7573d6000803e3d6000fd5b505050506040513d601f19601f8201168201806040525081019061060b9190610e5b565b505050505050505050505050505050565b6001600160a01b038084168582161090861663128acb083083868161065f5761065a600173fffd8963efd1fc6a506488495d951d5263988d26610f95565b61066f565b61066f6401000276a36001610fbc565b876040518663ffffffff1660e01b8152600401610690959493929190610fdc565b60408051808303816000875af11580156106ae573d6000803e3d6000fd5b505050506040513d601f19601f820116820180604052508101906106d29190611056565b5050505050505050565b60405163095ea7b360e01b815273a062ae8a9c5e11aaa026fc2670b0d65ccc8b28586004820152602481018590526000906001600160a01b0388169063095ea7b3906044016020604051808303816000875af1158015610740573d6000803e3d6000fd5b505050506040513d601f19601f820116820180604052508101906107649190610e5b565b50604080516001808252818301909252600091816020015b60408051608081018252600080825260208083018290529282018190526060820152825260001990920191018161077c5790505090506040518060800160405280896001600160a01b03168152602001886001600160a01b03168152602001851515815260200173f1046053aa5682b4f9a81b5481394da16be5ff5a6001600160a01b0316815250816000815181106108175761081761107a565b602090810291909101015260405163cac88ea960e01b815260009073a062ae8a9c5e11aaa026fc2670b0d65ccc8b28589063cac88ea990610864908a908a9087908a904290600401611090565b6000604051808303816000875af1158015610883573d6000803e3d6000fd5b505050506040513d6000823e601f3d908101601f191682016040526108ab9190810190611132565b905080600182516108bc9190610e42565b815181106108cc576108cc61107a565b6020026020010151925050509695505050505050565b60405163095ea7b360e01b815273eaf1ac8e89ea0ae13e0f03634a4ff235025270246004820152602481018490526000906001600160a01b0387169063095ea7b3906044016020604051808303816000875af1158015610946573d6000803e3d6000fd5b505050506040513d601f19601f8201168201806040525081019061096a9190610e5b565b50604051633ee101c160e11b81526001600160a01b0380881660048301528087166024830152604482018690526064820185905283166084820181905260a482015273eaf1ac8e89ea0ae13e0f03634a4ff2350252702490637dc203829060c4016020604051808303816000875af11580156109ea573d6000803e3d6000fd5b505050506040513d601f19601f82011682018060405250810190610a0e9190610d7f565b9695505050505050565b60405163095ea7b360e01b81527368d1ca32aee9a73534429d8376743bf222ff18706004820152602481018490526000906001600160a01b0387169063095ea7b3906044016020604051808303816000875af1158015610a7c573d6000803e3d6000fd5b505050506040513d601f19601f82011682018060405250810190610aa09190610e5b565b506040516370a0823160e01b81526001600160a01b038381166004830152600091908716906370a0823190602401602060405180830381865afa158015610aeb573d6000803e3d6000fd5b505050506040513d601f19601f82011682018060405250810190610b0f9190610d7f565b60408051600280825260608201835292935060009290916020830190803683370190505090508781600081518110610b4957610b4961107a565b60200260200101906001600160a01b031690816001600160a01b0316815250508681600181518110610b7d57610b7d61107a565b6001600160a01b0390921660209283029190910190910152604051633011f4b360e11b81527368d1ca32aee9a73534429d8376743bf222ff187090636023e96690610bd29084908a908a908a906004016111cc565b600060405180830381600087803b158015610bec57600080fd5b505af1158015610c00573d6000803e3d6000fd5b50506040516370a0823160e01b81526001600160a01b0387811660048301528593508a1691506370a0823190602401602060405180830381865afa158015610255573d6000803e3d6000fd5b80356001600160a01b0381168114610c6357600080fd5b919050565b803560048110610c6357600080fd5b60008060008060008060c08789031215610c9057600080fd5b610c9987610c4c565b9550610ca760208801610c4c565b9450610cb560408801610c4c565b93506060870135925060808701359150610cd160a08801610c68565b90509295509295509295565b600060208284031215610cef57600080fd5b610cf882610c4c565b9392505050565b60008060008060608587031215610d1557600080fd5b8435935060208501359250604085013567ffffffffffffffff80821115610d3b57600080fd5b818701915087601f830112610d4f57600080fd5b813581811115610d5e57600080fd5b886020828501011115610d7057600080fd5b95989497505060200194505050565b600060208284031215610d9157600080fd5b5051919050565b634e487b7160e01b600052602160045260246000fd5b600060e08201905060018060a01b03808451168352806020850151166020840152806040850151166040840152806060850151166060840152506080830151608083015260a083015160a083015260c083015160048110610e1f57634e487b7160e01b600052602160045260246000fd5b8060c08401525092915050565b634e487b7160e01b600052601160045260246000fd5b81810381811115610e5557610e55610e2c565b92915050565b600060208284031215610e6d57600080fd5b81518015158114610cf857600080fd5b634e487b7160e01b600052604160045260246000fd5b604051601f8201601f1916810167ffffffffffffffff81118282101715610ebc57610ebc610e7d565b604052919050565b600060e08284031215610ed657600080fd5b60405160e0810181811067ffffffffffffffff82111715610ef957610ef9610e7d565b604052610f0583610c4c565b8152610f1360208401610c4c565b6020820152610f2460408401610c4c565b6040820152610f3560608401610c4c565b60608201526080830135608082015260a083013560a0820152610f5a60c08401610c68565b60c08201529392505050565b6000600160ff1b8201610f7b57610f7b610e2c565b5060000390565b80820180821115610e5557610e55610e2c565b6001600160a01b03828116828216039080821115610fb557610fb5610e2c565b5092915050565b6001600160a01b03818116838216019080821115610fb557610fb5610e2c565b600060018060a01b038088168352602087151581850152866040850152818616606085015260a06080850152845191508160a085015260005b828110156110315785810182015185820160c001528101611015565b5050600060c0828501015260c0601f19601f8301168401019150509695505050505050565b6000806040838503121561106957600080fd5b505080516020909101519092909150565b634e487b7160e01b600052603260045260246000fd5b600060a0820187835260208781850152604060a08186015282885180855260c087019150838a01945060005b8181101561110657855180516001600160a01b03908116855286820151811687860152858201511515868601526060918201511690840152948401946080909201916001016110bc565b50506001600160a01b0388166060870152935061112292505050565b8260808301529695505050505050565b6000602080838503121561114557600080fd5b825167ffffffffffffffff8082111561115d57600080fd5b818501915085601f83011261117157600080fd5b81518181111561118357611183610e7d565b8060051b9150611194848301610e93565b81815291830184019184810190888411156111ae57600080fd5b938501935b83851015610283578451825293850193908501906111b3565b6080808252855190820181905260009060209060a0840190828901845b8281101561120e5781516001600160a01b0316845292840192908401906001016111e9565b505050908301959095525060408101929092526001600160a01b031660609091015291905056fea164736f6c6343000813000a",
  "devdoc": {
    "kind": "dev",
    "methods": {},
    "version": 1
  },
  "userdoc": {
    "kind": "user",
    "methods": {},
    "version": 1
  },
  "storageLayout": {
    "storage": [
      {
        "astId": 1767,
        "contract": "contracts/arbitrage/FlashArbitrageur.sol:FlashArbitrageur",
        "label": "owner",
        "offset": 0,
        "slot": "0",
        "type": "t_address"
      }
    ],
    "types": {
      "t_address": {
        "encoding": "inplace",
        "label": "address",
        "numberOfBytes": "20"
      }
    }
  }
}