{
  "address": "0x6616CFE2dAcd7175382FFdD1Be824068128faB04",
  "abi": [
    {
      "inputs": [
        {
          "internalType": "address",
          "name": "ownerArg",
          "type": "address"
        }
      ],
      "stateMutability": "nonpayable",
      "type": "constructor"
    },
    {
      "inputs": [],
      "name": "InvalidBranch",
      "type": "error"
    },
    {
      "inputs": [],
      "name": "InvalidCaller",
      "type": "error"
    },
    {
      "inputs": [],
      "name": "NoProfit",
      "type": "error"
    },
    {
      "inputs": [],
      "name": "OneInchSwapFail",
      "type": "error"
    },
    {
      "anonymous": false,
      "inputs": [
        {
          "indexed": true,
          "internalType": "address",
          "name": "user",
          "type": "address"
        },
        {
          "indexed": true,
          "internalType": "address",
          "name": "newOwner",
          "type": "address"
        }
      ],
      "name": "OwnershipTransferred",
      "type": "event"
    },
    {
      "inputs": [
        {
          "internalType": "address",
          "name": "tokenIn",
          "type": "address"
        },
        {
          "internalType": "address",
          "name": "tokenOut",
          "type": "address"
        },
        {
          "internalType": "uint256",
          "name": "amountIn",
          "type": "uint256"
        },
        {
          "internalType": "uint256",
          "name": "minProfit",
          "type": "uint256"
        },
        {
          "internalType": "bytes",
          "name": "oneInchData",
          "type": "bytes"
        },
        {
          "internalType": "uint24",
          "name": "uniswapV3Fee",
          "type": "uint24"
        }
      ],
      "name": "arbitrageOneInch",
      "outputs": [
        {
          "internalType": "uint256",
          "name": "",
          "type": "uint256"
        }
      ],
      "stateMutability": "nonpayable",
      "type": "function"
    },
    {
      "inputs": [
        {
          "internalType": "address",
          "name": "borrowFromPool",
          "type": "address"
        },
        {
          "internalType": "address",
          "name": "tokenIn",
          "type": "address"
        },
        {
          "internalType": "address",
          "name": "tokenOut",
          "type": "address"
        },
        {
          "internalType": "uint256",
          "name": "amountIn",
          "type": "uint256"
        },
        {
          "internalType": "uint256",
          "name": "minProfit",
          "type": "uint256"
        },
        {
          "internalType": "bytes",
          "name": "oneInchData",
          "type": "bytes"
        }
      ],
      "name": "arbitrageUniswapV3",
      "outputs": [
        {
          "internalType": "uint256",
          "name": "",
          "type": "uint256"
        }
      ],
      "stateMutability": "nonpayable",
      "type": "function"
    },
    {
      "inputs": [],
      "name": "owner",
      "outputs": [
        {
          "internalType": "address",
          "name": "",
          "type": "address"
        }
      ],
      "stateMutability": "view",
      "type": "function"
    },
    {
      "inputs": [
        {
          "internalType": "address[]",
          "name": "tokens",
          "type": "address[]"
        },
        {
          "internalType": "uint256[]",
          "name": "amounts",
          "type": "uint256[]"
        },
        {
          "internalType": "uint256[]",
          "name": "feeAmounts",
          "type": "uint256[]"
        },
        {
          "internalType": "bytes",
          "name": "userData",
          "type": "bytes"
        }
      ],
      "name": "receiveFlashLoan",
      "outputs": [],
      "stateMutability": "nonpayable",
      "type": "function"
    },
    {
      "inputs": [
        {
          "internalType": "address",
          "name": "newOwner",
          "type": "address"
        }
      ],
      "name": "transferOwnership",
      "outputs": [],
      "stateMutability": "nonpayable",
      "type": "function"
    },
    {
      "inputs": [
        {
          "internalType": "int256",
          "name": "amount0",
          "type": "int256"
        },
        {
          "internalType": "int256",
          "name": "amount1",
          "type": "int256"
        },
        {
          "internalType": "bytes",
          "name": "data",
          "type": "bytes"
        }
      ],
      "name": "uniswapV3SwapCallback",
      "outputs": [],
      "stateMutability": "nonpayable",
      "type": "function"
    },
    {
      "inputs": [
        {
          "internalType": "address",
          "name": "token",
          "type": "address"
        }
      ],
      "name": "withdrawAll",
      "outputs": [],
      "stateMutability": "nonpayable",
      "type": "function"
    }
  ],
  "transactionHash": "0x217130da64d52a565e546d1581f0b612cb5f8eb078ad8a14d8f6201eb40be26a",
  "args": [
    "0xab6bee4413f8a076bc7fc8C9227d7F3ad6338D47"
  ],
  "numDeployments": 2,
  "solcInputHash": "bf05b1770c51ed834d3113594b5ee369",
  "bytecode": "0x608060405234801561001057600080fd5b5060405161186238038061186283398101604081905261002f91610081565b600080546001600160a01b0319166001600160a01b038316908117825560405183928392917f8be0079c531659141344cd1fd0a4f28419497f9722a3daafe3b4186f6b6457e0908290a35050506100b1565b60006020828403121561009357600080fd5b81516001600160a01b03811681146100aa57600080fd5b9392505050565b6117a2806100c06000396000f3fe608060405234801561001057600080fd5b506004361061007d5760003560e01c8063f04f27071161005b578063f04f2707146100e6578063f2fde38b146100fb578063fa09e6301461010e578063fa461e331461012157600080fd5b80631dff391b146100825780638da5cb5b146100a8578063dc7b732b146100d3575b600080fd5b610095610090366004610e85565b610134565b6040519081526020015b60405180910390f35b6000546100bb906001600160a01b031681565b6040516001600160a01b03909116815260200161009f565b6100956100e1366004610f25565b6102db565b6100f96100f4366004611150565b610404565b005b6100f961010936600461125b565b6105a1565b6100f961011c36600461125b565b61063a565b6100f961012f36600461127f565b61076d565b6040516370a0823160e01b815230600482015260009081906001600160a01b038916906370a0823190602401602060405180830381865afa15801561017d573d6000803e3d6000fd5b505050506040513d601f19601f820116820180604052508101906101a191906112d2565b9050610259898989896040518060e00160405280336001600160a01b031681526020018f6001600160a01b031681526020018e6001600160a01b031681526020018d6001600160a01b031681526020018c81526020018b81526020018a8a8080601f0160208091040260200160405190810160405280939291908181526020018383808284376000920191909152505050915250604051610245919060200161133b565b6040516020818303038152906040526108b2565b6040516370a0823160e01b815230600482015281906001600160a01b038a16906370a08231906024015b602060405180830381865afa1580156102a0573d6000803e3d6000fd5b505050506040513d601f19601f820116820180604052508101906102c491906112d2565b6102ce91906113c1565b9998505050505050505050565b6040516370a0823160e01b815230600482015260009081906001600160a01b038a16906370a0823190602401602060405180830381865afa158015610324573d6000803e3d6000fd5b505050506040513d601f19601f8201168201806040525081019061034891906112d2565b90506103d6898860405180608001604052808c6001600160a01b031681526020018a815260200189898080601f01602080910402602001604051908101604052809392919081815260200183838082843760009201919091525050509082525062ffffff88166020918201526040516103c29291016113da565b604051602081830303815290604052610972565b6040516370a0823160e01b815230600482015281906001600160a01b038b16906370a0823190602401610283565b3373ba12222222228d8ba445958a75a0704d566bf2c814610438576040516348f5c3ed60e01b815260040160405180910390fd5b60008180602001905181019061044e9190611438565b90506000856000815181106104655761046561150b565b6020026020010151905060008260000151905060008660008151811061048d5761048d61150b565b602002602001015190506000866000815181106104ac576104ac61150b565b6020026020010151905060006104c88585858960400151610a7a565b90506104f6848683896020015186886104e19190611521565b6104eb9190611521565b8a6060015130610c83565b506001600160a01b03851663a9059cbb73ba12222222228d8ba445958a75a0704d566bf2c86105258587611521565b6040516001600160e01b031960e085901b1681526001600160a01b03909216600483015260248201526044016020604051808303816000875af1158015610570573d6000803e3d6000fd5b505050506040513d601f19601f820116820180604052508101906105949190611534565b5050505050505050505050565b6000546001600160a01b031633146105ef5760405162461bcd60e51b815260206004820152600c60248201526b15539055551213d49256915160a21b60448201526064015b60405180910390fd5b600080546001600160a01b0319166001600160a01b0383169081178255604051909133917f8be0079c531659141344cd1fd0a4f28419497f9722a3daafe3b4186f6b6457e09190a350565b6000546001600160a01b031633146106835760405162461bcd60e51b815260206004820152600c60248201526b15539055551213d49256915160a21b60448201526064016105e6565b6000546040516370a0823160e01b81523060048201526001600160a01b038381169263a9059cbb9291169083906370a0823190602401602060405180830381865afa1580156106d6573d6000803e3d6000fd5b505050506040513d601f19601f820116820180604052508101906106fa91906112d2565b6040516001600160e01b031960e085901b1681526001600160a01b03909216600483015260248201526044016020604051808303816000875af1158015610745573d6000803e3d6000fd5b505050506040513d601f19601f820116820180604052508101906107699190611534565b5050565b600061077b82840184611556565b6020810151909150336001600160a01b038216146107ac576040516348f5c3ed60e01b815260040160405180910390fd5b60408201516060830151608084015160a085015160006001600160a01b03808516908616106107e3576107de8b61161b565b6107ec565b6107ec8a61161b565b905060006108008587848b60c00151610a7a565b905061080c8385611521565b811061088b5760405163a9059cbb60e01b81526001600160a01b0388811660048301526024820186905287169063a9059cbb906044016020604051808303816000875af1158015610861573d6000803e3d6000fd5b505050506040513d601f19601f820116820180604052508101906108859190611534565b506108a4565b6040516371cd57f760e11b815260040160405180910390fd5b505050505050505050505050565b6001600160a01b038084168582161090861663128acb08308386816108f5576108f0600173fffd8963efd1fc6a506488495d951d5263988d26611637565b610905565b6109056401000276a3600161165e565b876040518663ffffffff1660e01b815260040161092695949392919061167e565b60408051808303816000875af1158015610944573d6000803e3d6000fd5b505050506040513d601f19601f8201168201806040525081019061096891906116b9565b5050505050505050565b6040805160018082528183019092526000916020808301908036833701905050905083816000815181106109a8576109a861150b565b6001600160a01b03929092166020928302919091019091015260408051600180825281830190925260009181602001602082028036833701905050905083816000815181106109f9576109f961150b565b6020908102919091010152604051632e1c224f60e11b815273ba12222222228d8ba445958a75a0704d566bf2c890635c38449e90610a419030908690869089906004016116dd565b600060405180830381600087803b158015610a5b57600080fd5b505af1158015610a6f573d6000803e3d6000fd5b505050505050505050565b60405163095ea7b360e01b8152731111111254eeb25477b68fb85ed929f73a9605826004820152602481018390526000906001600160a01b0386169063095ea7b3906044016020604051808303816000875af1158015610ade573d6000803e3d6000fd5b505050506040513d601f19601f82011682018060405250810190610b029190611534565b506040516370a0823160e01b81523060048201526000906001600160a01b038616906370a0823190602401602060405180830381865afa158015610b4a573d6000803e3d6000fd5b505050506040513d601f19601f82011682018060405250810190610b6e91906112d2565b90506000731111111254eeb25477b68fb85ed929f73a9605826001600160a01b0316600085604051610ba09190611779565b60006040518083038185875af1925050503d8060008114610bdd576040519150601f19603f3d011682016040523d82523d6000602084013e610be2565b606091505b5050905080610c045760405163152ac36d60e01b815260040160405180910390fd5b6040516370a0823160e01b815230600482015282906001600160a01b038816906370a0823190602401602060405180830381865afa158015610c4a573d6000803e3d6000fd5b505050506040513d601f19601f82011682018060405250810190610c6e91906112d2565b610c7891906113c1565b979650505050505050565b60405163095ea7b360e01b815273e592427a0aece92de3edee1f18e0157c058615646004820152602481018590526000906001600160a01b0388169063095ea7b3906044016020604051808303816000875af1158015610ce7573d6000803e3d6000fd5b505050506040513d601f19601f82011682018060405250810190610d0b9190611534565b5060408051610100810182526001600160a01b0389811682528881166020830190815262ffffff87811684860190815287841660608601908152426080870190815260a087018d815260c088018d8152600060e08a01908152995163414bf38960e01b81529851881660048a0152955187166024890152925190931660448701525184166064860152905160848501525160a48401525160c4830152915190911660e482015273e592427a0aece92de3edee1f18e0157c058615649063414bf38990610104016020604051808303816000875af1158015610df0573d6000803e3d6000fd5b505050506040513d601f19601f82011682018060405250810190610c7891906112d2565b6001600160a01b0381168114610e2957600080fd5b50565b8035610e3781610e14565b919050565b60008083601f840112610e4e57600080fd5b50813567ffffffffffffffff811115610e6657600080fd5b602083019150836020828501011115610e7e57600080fd5b9250929050565b600080600080600080600060c0888a031215610ea057600080fd5b8735610eab81610e14565b96506020880135610ebb81610e14565b95506040880135610ecb81610e14565b9450606088013593506080880135925060a088013567ffffffffffffffff811115610ef557600080fd5b610f018a828b01610e3c565b989b979a50959850939692959293505050565b62ffffff81168114610e2957600080fd5b600080600080600080600060c0888a031215610f4057600080fd5b8735610f4b81610e14565b96506020880135610f5b81610e14565b95506040880135945060608801359350608088013567ffffffffffffffff811115610f8557600080fd5b610f918a828b01610e3c565b90945092505060a0880135610fa581610f14565b8091505092959891949750929550565b634e487b7160e01b600052604160045260246000fd5b6040516080810167ffffffffffffffff81118282101715610fee57610fee610fb5565b60405290565b60405160e0810167ffffffffffffffff81118282101715610fee57610fee610fb5565b604051601f8201601f1916810167ffffffffffffffff8111828210171561104057611040610fb5565b604052919050565b600067ffffffffffffffff82111561106257611062610fb5565b5060051b60200190565b600082601f83011261107d57600080fd5b8135602061109261108d83611048565b611017565b82815260059290921b840181019181810190868411156110b157600080fd5b8286015b848110156110cc57803583529183019183016110b5565b509695505050505050565b600067ffffffffffffffff8211156110f1576110f1610fb5565b50601f01601f191660200190565b600082601f83011261111057600080fd5b813561111e61108d826110d7565b81815284602083860101111561113357600080fd5b816020850160208301376000918101602001919091529392505050565b6000806000806080858703121561116657600080fd5b843567ffffffffffffffff8082111561117e57600080fd5b818701915087601f83011261119257600080fd5b813560206111a261108d83611048565b82815260059290921b8401810191818101908b8411156111c157600080fd5b948201945b838610156111e85785356111d981610e14565b825294820194908201906111c6565b985050880135925050808211156111fe57600080fd5b61120a8883890161106c565b9450604087013591508082111561122057600080fd5b61122c8883890161106c565b9350606087013591508082111561124257600080fd5b5061124f878288016110ff565b91505092959194509250565b60006020828403121561126d57600080fd5b813561127881610e14565b9392505050565b6000806000806060858703121561129557600080fd5b8435935060208501359250604085013567ffffffffffffffff8111156112ba57600080fd5b6112c687828801610e3c565b95989497509550505050565b6000602082840312156112e457600080fd5b5051919050565b60005b838110156113065781810151838201526020016112ee565b50506000910152565b600081518084526113278160208601602086016112eb565b601f01601f19169290920160200192915050565b60208152600060018060a01b0380845116602084015280602085015116604084015280604085015116606084015280606085015116608084015250608083015160a083015260a083015160c083015260c083015160e0808401526113a361010084018261130f565b949350505050565b634e487b7160e01b600052601160045260246000fd5b818103818111156113d4576113d46113ab565b92915050565b6020815260018060a01b03825116602082015260208201516040820152600060408301516080606084015261141260a084018261130f565b905062ffffff60608501511660808401528091505092915050565b8051610e3781610f14565b6000602080838503121561144b57600080fd5b825167ffffffffffffffff8082111561146357600080fd5b908401906080828703121561147757600080fd5b61147f610fcb565b825161148a81610e14565b815282840151848201526040830151828111156114a657600080fd5b83019150601f820187136114b957600080fd5b81516114c761108d826110d7565b81815288868386010111156114db57600080fd5b6114ea828783018887016112eb565b6040830152506114fc6060840161142d565b60608201529695505050505050565b634e487b7160e01b600052603260045260246000fd5b808201808211156113d4576113d46113ab565b60006020828403121561154657600080fd5b8151801515811461127857600080fd5b60006020828403121561156857600080fd5b813567ffffffffffffffff8082111561158057600080fd5b9083019060e0828603121561159457600080fd5b61159c610ff4565b6115a583610e2c565b81526115b360208401610e2c565b60208201526115c460408401610e2c565b60408201526115d560608401610e2c565b60608201526080830135608082015260a083013560a082015260c08301358281111561160057600080fd5b61160c878286016110ff565b60c08301525095945050505050565b6000600160ff1b8201611630576116306113ab565b5060000390565b6001600160a01b03828116828216039080821115611657576116576113ab565b5092915050565b6001600160a01b03818116838216019080821115611657576116576113ab565b6001600160a01b0386811682528515156020830152604082018590528316606082015260a060808201819052600090610c789083018461130f565b600080604083850312156116cc57600080fd5b505080516020909101519092909150565b6001600160a01b0385811682526080602080840182905286519184018290526000928782019290919060a0860190855b8181101561172b57855185168352948301949183019160010161170d565b5050858103604087015287518082529082019350915080870160005b8381101561176357815185529382019390820190600101611747565b505050508281036060840152610c78818561130f565b6000825161178b8184602087016112eb565b919091019291505056fea164736f6c6343000813000a",
  "devdoc": {
    "kind": "dev",
    "methods": {},
    "version": 1
  },
  "userdoc": {
    "kind": "user",
    "methods": {},
    "version": 1
  },
  "storageLayout": {
    "storage": [
      {
        "astId": 1767,
        "contract": "contracts/arbitrage/FlashAggregateArbitrageur.sol:FlashAggregateArbitrageur",
        "label": "owner",
        "offset": 0,
        "slot": "0",
        "type": "t_address"
      }
    ],
    "types": {
      "t_address": {
        "encoding": "inplace",
        "label": "address",
        "numberOfBytes": "20"
      }
    }
  }
}