{
  "address": "0x7A5ba5165eED925bD13EA2b345cBa72BFDC370E1",
  "abi": [
    {
      "inputs": [],
      "name": "InvalidBranch",
      "type": "error"
    },
    {
      "inputs": [],
      "name": "InvalidCaller",
      "type": "error"
    },
    {
      "inputs": [],
      "name": "NoProfit",
      "type": "error"
    },
    {
      "anonymous": false,
      "inputs": [
        {
          "indexed": true,
          "internalType": "address",
          "name": "user",
          "type": "address"
        },
        {
          "indexed": true,
          "internalType": "address",
          "name": "newOwner",
          "type": "address"
        }
      ],
      "name": "OwnershipTransferred",
      "type": "event"
    },
    {
      "inputs": [],
      "name": "WOOFI_V2_ROUTER",
      "outputs": [
        {
          "internalType": "address",
          "name": "",
          "type": "address"
        }
      ],
      "stateMutability": "view",
      "type": "function"
    },
    {
      "inputs": [
        {
          "internalType": "address",
          "name": "pool",
          "type": "address"
        },
        {
          "internalType": "address",
          "name": "tokenIn",
          "type": "address"
        },
        {
          "internalType": "address",
          "name": "tokenOut",
          "type": "address"
        },
        {
          "internalType": "uint256",
          "name": "amountIn",
          "type": "uint256"
        },
        {
          "internalType": "uint256",
          "name": "minProfit",
          "type": "uint256"
        },
        {
          "internalType": "enum FlashArbitrageur.ArbitrageFunc",
          "name": "secondArbitrageFunc",
          "type": "uint8"
        }
      ],
      "name": "arbitrageUniswapV3FlashSwap",
      "outputs": [],
      "stateMutability": "nonpayable",
      "type": "function"
    },
    {
      "inputs": [],
      "name": "owner",
      "outputs": [
        {
          "internalType": "address",
          "name": "",
          "type": "address"
        }
      ],
      "stateMutability": "view",
      "type": "function"
    },
    {
      "inputs": [
        {
          "internalType": "address",
          "name": "newOwner",
          "type": "address"
        }
      ],
      "name": "transferOwnership",
      "outputs": [],
      "stateMutability": "nonpayable",
      "type": "function"
    },
    {
      "inputs": [
        {
          "internalType": "int256",
          "name": "amount0",
          "type": "int256"
        },
        {
          "internalType": "int256",
          "name": "amount1",
          "type": "int256"
        },
        {
          "internalType": "bytes",
          "name": "data",
          "type": "bytes"
        }
      ],
      "name": "uniswapV3SwapCallback",
      "outputs": [],
      "stateMutability": "nonpayable",
      "type": "function"
    },
    {
      "inputs": [
        {
          "internalType": "address",
          "name": "token",
          "type": "address"
        }
      ],
      "name": "withdrawAll",
      "outputs": [],
      "stateMutability": "nonpayable",
      "type": "function"
    }
  ],
  "transactionHash": "0xd42e02bbcf3502eb768a53f9ea280d9649f06d9999aa27008bb1433158260884",
  "args": [],
  "numDeployments": 1,
  "solcInputHash": "11934d97d4e694cac986c46990bb8534",
  "bytecode": "0x608060405234801561001057600080fd5b50600080546001600160a01b031916339081178255604051909182917f8be0079c531659141344cd1fd0a4f28419497f9722a3daafe3b4186f6b6457e0908290a35061120b806100616000396000f3fe608060405234801561001057600080fd5b50600436106100625760003560e01c806307e449bc146100675780634bff5b101461007c5780638da5cb5b146100b3578063f2fde38b146100c6578063fa09e630146100d9578063fa461e33146100ec575b600080fd5b61007a610075366004610c40565b6100ff565b005b61009773eaf1ac8e89ea0ae13e0f03634a4ff2350252702481565b6040516001600160a01b03909116815260200160405180910390f35b600054610097906001600160a01b031681565b61007a6100d4366004610ca6565b610199565b61007a6100e7366004610ca6565b610232565b61007a6100fa366004610cc8565b610365565b610191868686866040518060e00160405280336001600160a01b031681526020018c6001600160a01b031681526020018b6001600160a01b031681526020018a6001600160a01b0316815260200189815260200188815260200187600281111561016b5761016b610d48565b905260405161017d9190602001610d5e565b6040516020818303038152906040526105ab565b505050505050565b6000546001600160a01b031633146101e75760405162461bcd60e51b815260206004820152600c60248201526b15539055551213d49256915160a21b60448201526064015b60405180910390fd5b600080546001600160a01b0319166001600160a01b0383169081178255604051909133917f8be0079c531659141344cd1fd0a4f28419497f9722a3daafe3b4186f6b6457e09190a350565b6000546001600160a01b0316331461027b5760405162461bcd60e51b815260206004820152600c60248201526b15539055551213d49256915160a21b60448201526064016101de565b6000546040516370a0823160e01b81523060048201526001600160a01b038381169263a9059cbb9291169083906370a0823190602401602060405180830381865afa1580156102ce573d6000803e3d6000fd5b505050506040513d601f19601f820116820180604052508101906102f29190610ddc565b6040516001600160e01b031960e085901b1681526001600160a01b03909216600483015260248201526044016020604051808303816000875af115801561033d573d6000803e3d6000fd5b505050506040513d601f19601f820116820180604052508101906103619190610df5565b5050565b600061037382840184610e5e565b6020810151909150336001600160a01b038216146103a4576040516348f5c3ed60e01b815260040160405180910390fd5b60408201516060830151608084015160a085015160c086015160006001600160a01b03808616908716106103e0576103db8c610f16565b6103e9565b6103e98b610f16565b905060008083600281111561040057610400610d48565b036104245761041d868884610415888a610f32565b60003061066b565b905061049b565b600183600281111561043857610438610d48565b036104535761041d86888461044d888a610f32565b30610871565b600283600281111561046757610467610d48565b036104825761041d86888461047c888a610f32565b306109a7565b60405163788be9a160e11b815260040160405180910390fd5b60405163a9059cbb60e01b81526001600160a01b0389811660048301526024820187905288169063a9059cbb906044016020604051808303816000875af11580156104ea573d6000803e3d6000fd5b505050506040513d601f19601f8201168201806040525081019061050e9190610df5565b5088516001600160a01b0388169063a9059cbb9061052c8885610f4b565b6040516001600160e01b031960e085901b1681526001600160a01b03909216600483015260248201526044016020604051808303816000875af1158015610577573d6000803e3d6000fd5b505050506040513d601f19601f8201168201806040525081019061059b9190610df5565b5050505050505050505050505050565b6001600160a01b038084168582161090861663128acb08308386816105ee576105e9600173fffd8963efd1fc6a506488495d951d5263988d26610f5e565b6105fe565b6105fe6401000276a36001610f85565b876040518663ffffffff1660e01b815260040161061f959493929190610fa5565b60408051808303816000875af115801561063d573d6000803e3d6000fd5b505050506040513d601f19601f82011682018060405250810190610661919061101f565b5050505050505050565b60405163095ea7b360e01b815273a062ae8a9c5e11aaa026fc2670b0d65ccc8b28586004820152602481018590526000906001600160a01b0388169063095ea7b3906044016020604051808303816000875af11580156106cf573d6000803e3d6000fd5b505050506040513d601f19601f820116820180604052508101906106f39190610df5565b50604080516001808252818301909252600091816020015b60408051608081018252600080825260208083018290529282018190526060820152825260001990920191018161070b5790505090506040518060800160405280896001600160a01b03168152602001886001600160a01b03168152602001851515815260200173f1046053aa5682b4f9a81b5481394da16be5ff5a6001600160a01b0316815250816000815181106107a6576107a6611043565b602090810291909101015260405163cac88ea960e01b815260009073a062ae8a9c5e11aaa026fc2670b0d65ccc8b28589063cac88ea9906107f3908a908a9087908a904290600401611059565b6000604051808303816000875af1158015610812573d6000803e3d6000fd5b505050506040513d6000823e601f3d908101601f1916820160405261083a91908101906110fb565b9050806001825161084b9190610f4b565b8151811061085b5761085b611043565b6020026020010151925050509695505050505050565b60405163095ea7b360e01b815273eaf1ac8e89ea0ae13e0f03634a4ff235025270246004820152602481018490526000906001600160a01b0387169063095ea7b3906044016020604051808303816000875af11580156108d5573d6000803e3d6000fd5b505050506040513d601f19601f820116820180604052508101906108f99190610df5565b50604051633ee101c160e11b81526001600160a01b0380881660048301528087166024830152604482018690526064820185905283166084820181905260a482015273eaf1ac8e89ea0ae13e0f03634a4ff2350252702490637dc203829060c4016020604051808303816000875af1158015610979573d6000803e3d6000fd5b505050506040513d601f19601f8201168201806040525081019061099d9190610ddc565b9695505050505050565b60405163095ea7b360e01b81527368d1ca32aee9a73534429d8376743bf222ff18706004820152602481018490526000906001600160a01b0387169063095ea7b3906044016020604051808303816000875af1158015610a0b573d6000803e3d6000fd5b505050506040513d601f19601f82011682018060405250810190610a2f9190610df5565b506040516370a0823160e01b81526001600160a01b038381166004830152600091908716906370a0823190602401602060405180830381865afa158015610a7a573d6000803e3d6000fd5b505050506040513d601f19601f82011682018060405250810190610a9e9190610ddc565b60408051600280825260608201835292935060009290916020830190803683370190505090508781600081518110610ad857610ad8611043565b60200260200101906001600160a01b031690816001600160a01b0316815250508681600181518110610b0c57610b0c611043565b6001600160a01b0390921660209283029190910190910152604051633011f4b360e11b81527368d1ca32aee9a73534429d8376743bf222ff187090636023e96690610b619084908a908a908a90600401611195565b600060405180830381600087803b158015610b7b57600080fd5b505af1158015610b8f573d6000803e3d6000fd5b50506040516370a0823160e01b81526001600160a01b0387811660048301528593508a1691506370a0823190602401602060405180830381865afa158015610bdb573d6000803e3d6000fd5b505050506040513d601f19601f82011682018060405250810190610bff9190610ddc565b610c099190610f4b565b98975050505050505050565b80356001600160a01b0381168114610c2c57600080fd5b919050565b803560038110610c2c57600080fd5b60008060008060008060c08789031215610c5957600080fd5b610c6287610c15565b9550610c7060208801610c15565b9450610c7e60408801610c15565b93506060870135925060808701359150610c9a60a08801610c31565b90509295509295509295565b600060208284031215610cb857600080fd5b610cc182610c15565b9392505050565b60008060008060608587031215610cde57600080fd5b8435935060208501359250604085013567ffffffffffffffff80821115610d0457600080fd5b818701915087601f830112610d1857600080fd5b813581811115610d2757600080fd5b886020828501011115610d3957600080fd5b95989497505060200194505050565b634e487b7160e01b600052602160045260246000fd5b600060e08201905060018060a01b03808451168352806020850151166020840152806040850151166040840152806060850151166060840152506080830151608083015260a083015160a083015260c083015160038110610dcf57634e487b7160e01b600052602160045260246000fd5b8060c08401525092915050565b600060208284031215610dee57600080fd5b5051919050565b600060208284031215610e0757600080fd5b81518015158114610cc157600080fd5b634e487b7160e01b600052604160045260246000fd5b604051601f8201601f1916810167ffffffffffffffff81118282101715610e5657610e56610e17565b604052919050565b600060e08284031215610e7057600080fd5b60405160e0810181811067ffffffffffffffff82111715610e9357610e93610e17565b604052610e9f83610c15565b8152610ead60208401610c15565b6020820152610ebe60408401610c15565b6040820152610ecf60608401610c15565b60608201526080830135608082015260a083013560a0820152610ef460c08401610c31565b60c08201529392505050565b634e487b7160e01b600052601160045260246000fd5b6000600160ff1b8201610f2b57610f2b610f00565b5060000390565b80820180821115610f4557610f45610f00565b92915050565b81810381811115610f4557610f45610f00565b6001600160a01b03828116828216039080821115610f7e57610f7e610f00565b5092915050565b6001600160a01b03818116838216019080821115610f7e57610f7e610f00565b600060018060a01b038088168352602087151581850152866040850152818616606085015260a06080850152845191508160a085015260005b82811015610ffa5785810182015185820160c001528101610fde565b5050600060c0828501015260c0601f19601f8301168401019150509695505050505050565b6000806040838503121561103257600080fd5b505080516020909101519092909150565b634e487b7160e01b600052603260045260246000fd5b600060a0820187835260208781850152604060a08186015282885180855260c087019150838a01945060005b818110156110cf57855180516001600160a01b0390811685528682015181168786015285820151151586860152606091820151169084015294840194608090920191600101611085565b50506001600160a01b038816606087015293506110eb92505050565b8260808301529695505050505050565b6000602080838503121561110e57600080fd5b825167ffffffffffffffff8082111561112657600080fd5b818501915085601f83011261113a57600080fd5b81518181111561114c5761114c610e17565b8060051b915061115d848301610e2d565b818152918301840191848101908884111561117757600080fd5b938501935b83851015610c095784518252938501939085019061117c565b6080808252855190820181905260009060209060a0840190828901845b828110156111d75781516001600160a01b0316845292840192908401906001016111b2565b505050908301959095525060408101929092526001600160a01b031660609091015291905056fea164736f6c6343000813000a",
  "devdoc": {
    "kind": "dev",
    "methods": {},
    "version": 1
  },
  "userdoc": {
    "kind": "user",
    "methods": {},
    "version": 1
  },
  "storageLayout": {
    "storage": [
      {
        "astId": 2226,
        "contract": "contracts/arbitrage/FlashArbitrageur.sol:FlashArbitrageur",
        "label": "owner",
        "offset": 0,
        "slot": "0",
        "type": "t_address"
      }
    ],
    "types": {
      "t_address": {
        "encoding": "inplace",
        "label": "address",
        "numberOfBytes": "20"
      }
    }
  }
}