{
  "address": "0x36Ba7fb266d353a401dcA7B245844823CCecfd01",
  "abi": [
    {
      "inputs": [],
      "stateMutability": "nonpayable",
      "type": "constructor"
    },
    {
      "inputs": [],
      "name": "NoProfit",
      "type": "error"
    },
    {
      "anonymous": false,
      "inputs": [
        {
          "indexed": true,
          "internalType": "address",
          "name": "previousOwner",
          "type": "address"
        },
        {
          "indexed": true,
          "internalType": "address",
          "name": "newOwner",
          "type": "address"
        }
      ],
      "name": "OwnershipTransferred",
      "type": "event"
    },
    {
      "inputs": [],
      "name": "UNISWAP_V3_SWAP_ROUTER_02",
      "outputs": [
        {
          "internalType": "address",
          "name": "",
          "type": "address"
        }
      ],
      "stateMutability": "view",
      "type": "function"
    },
    {
      "inputs": [],
      "name": "VELODROME_V2_POOL_FACTORY",
      "outputs": [
        {
          "internalType": "address",
          "name": "",
          "type": "address"
        }
      ],
      "stateMutability": "view",
      "type": "function"
    },
    {
      "inputs": [],
      "name": "VELODROME_V2_ROUTER",
      "outputs": [
        {
          "internalType": "address",
          "name": "",
          "type": "address"
        }
      ],
      "stateMutability": "view",
      "type": "function"
    },
    {
      "inputs": [
        {
          "internalType": "address",
          "name": "tokenIn",
          "type": "address"
        },
        {
          "internalType": "address",
          "name": "tokenOut",
          "type": "address"
        },
        {
          "internalType": "uint256",
          "name": "amountIn",
          "type": "uint256"
        },
        {
          "internalType": "uint256",
          "name": "minProfit",
          "type": "uint256"
        },
        {
          "internalType": "uint24",
          "name": "uniswapV3Fee",
          "type": "uint24"
        },
        {
          "internalType": "bool",
          "name": "velodromeV2Stable",
          "type": "bool"
        }
      ],
      "name": "arbitrageUniswapV3toVelodromeV2",
      "outputs": [],
      "stateMutability": "nonpayable",
      "type": "function"
    },
    {
      "inputs": [
        {
          "internalType": "address",
          "name": "tokenIn",
          "type": "address"
        },
        {
          "internalType": "address",
          "name": "tokenOut",
          "type": "address"
        },
        {
          "internalType": "uint256",
          "name": "amountIn",
          "type": "uint256"
        },
        {
          "internalType": "uint256",
          "name": "minProfit",
          "type": "uint256"
        },
        {
          "internalType": "uint24",
          "name": "uniswapV3Fee",
          "type": "uint24"
        },
        {
          "internalType": "bool",
          "name": "velodromeV2Stable",
          "type": "bool"
        }
      ],
      "name": "arbitrageVelodromeV2toUniswapV3",
      "outputs": [],
      "stateMutability": "nonpayable",
      "type": "function"
    },
    {
      "inputs": [],
      "name": "owner",
      "outputs": [
        {
          "internalType": "address",
          "name": "",
          "type": "address"
        }
      ],
      "stateMutability": "view",
      "type": "function"
    },
    {
      "inputs": [],
      "name": "renounceOwnership",
      "outputs": [],
      "stateMutability": "nonpayable",
      "type": "function"
    },
    {
      "inputs": [
        {
          "internalType": "address",
          "name": "newOwner",
          "type": "address"
        }
      ],
      "name": "transferOwnership",
      "outputs": [],
      "stateMutability": "nonpayable",
      "type": "function"
    },
    {
      "inputs": [
        {
          "internalType": "address",
          "name": "token",
          "type": "address"
        }
      ],
      "name": "withdrawAll",
      "outputs": [],
      "stateMutability": "nonpayable",
      "type": "function"
    }
  ],
  "transactionHash": "0xf35fd75b73f9da3d8dc73c2b83bcacbb1bd59dcc5cc2fa49986552f279223472",
  "args": [],
  "numDeployments": 1,
  "solcInputHash": "51902a8e1121d3029aef266297e77162",
  "bytecode": "0x608060405234801561001057600080fd5b5061001a3361001f565b61006f565b600080546001600160a01b038381166001600160a01b0319831681178455604051919092169283917f8be0079c531659141344cd1fd0a4f28419497f9722a3daafe3b4186f6b6457e09190a35050565b610e2a8061007e6000396000f3fe608060405234801561001057600080fd5b50600436106100935760003560e01c80638da5cb5b116100665780638da5cb5b146100ff578063ea182fca14610110578063f2fde38b1461012b578063fa09e6301461013e578063ff394eeb1461015157600080fd5b806314b444821461009857806340024da9146100ad578063715018a6146100e45780637cedde61146100ec575b600080fd5b6100ab6100a6366004610b10565b61016c565b005b6100c873420dd381b31aef6683db6b902084cb0ffece40da81565b6040516001600160a01b03909116815260200160405180910390f35b6100ab6101f0565b6100ab6100fa366004610b10565b610204565b6000546001600160a01b03166100c8565b6100c873cf77a3ba9a5ca399b7c97c74d54e5b1beb874e4381565b6100ab610139366004610b84565b61023f565b6100ab61014c366004610b84565b6102bd565b6100c8732626664c2603336e57b271c5c0b26f421741e48181565b610174610353565b6101896001600160a01b0387163330876103ad565b60006101978787878561041e565b905060006101a7878984876106e0565b90506101b38587610bbc565b81116101d2576040516371cd57f760e11b815260040160405180910390fd5b6101e66001600160a01b0389163388610869565b5050505050505050565b6101f8610353565b610202600061089e565b565b61020c610353565b6102216001600160a01b0387163330876103ad565b600061022f878787866106e0565b905060006101a78789848661041e565b610247610353565b6001600160a01b0381166102b15760405162461bcd60e51b815260206004820152602660248201527f4f776e61626c653a206e6577206f776e657220697320746865207a65726f206160448201526564647265737360d01b60648201526084015b60405180910390fd5b6102ba8161089e565b50565b6102c5610353565b6102ba6102da6000546001600160a01b031690565b6040516370a0823160e01b81523060048201526001600160a01b038416906370a0823190602401602060405180830381865afa15801561031e573d6000803e3d6000fd5b505050506040513d601f19601f820116820180604052508101906103429190610bd5565b6001600160a01b0384169190610869565b6000546001600160a01b031633146102025760405162461bcd60e51b815260206004820181905260248201527f4f776e61626c653a2063616c6c6572206973206e6f7420746865206f776e657260448201526064016102a8565b6040516001600160a01b03808516602483015283166044820152606481018290526104189085906323b872dd60e01b906084015b60408051601f198184030181529190526020810180516001600160e01b03166001600160e01b0319909316929092179091526108ee565b50505050565b60405163095ea7b360e01b815273cf77a3ba9a5ca399b7c97c74d54e5b1beb874e436004820152602481018390526000906001600160a01b0386169063095ea7b3906044016020604051808303816000875af1158015610482573d6000803e3d6000fd5b505050506040513d601f19601f820116820180604052508101906104a69190610bee565b506040516370a0823160e01b81523060048201526000906001600160a01b038616906370a0823190602401602060405180830381865afa1580156104ee573d6000803e3d6000fd5b505050506040513d601f19601f820116820180604052508101906105129190610bd5565b60408051600180825281830190925291925060009190816020015b60408051608081018252600080825260208083018290529282018190526060820152825260001990920191018161052d5790505090506040518060800160405280886001600160a01b03168152602001876001600160a01b03168152602001851515815260200173420dd381b31aef6683db6b902084cb0ffece40da6001600160a01b0316815250816000815181106105c8576105c8610c21565b602090810291909101015260405163cac88ea960e01b815273cf77a3ba9a5ca399b7c97c74d54e5b1beb874e439063cac88ea990610613908890600090869030904290600401610c37565b6000604051808303816000875af1158015610632573d6000803e3d6000fd5b505050506040513d6000823e601f3d908101601f1916820160405261065a9190810190610cd9565b506040516370a0823160e01b81523060048201526000906001600160a01b038816906370a0823190602401602060405180830381865afa1580156106a2573d6000803e3d6000fd5b505050506040513d601f19601f820116820180604052508101906106c69190610bd5565b90506106d28382610d97565b93505050505b949350505050565b60405163095ea7b360e01b8152732626664c2603336e57b271c5c0b26f421741e4816004820152602481018390526000906001600160a01b0386169063095ea7b3906044016020604051808303816000875af1158015610744573d6000803e3d6000fd5b505050506040513d601f19601f820116820180604052508101906107689190610bee565b506040805160e0810182526001600160a01b0387811682528681166020830190815262ffffff8681168486019081523060608601908152608086018a8152600060a0880181815260c0890191825298516304e45aaf60e01b815297518716600489015294518616602488015291519092166044860152905183166064850152516084840152925160a4830152915190911660c4820152732626664c2603336e57b271c5c0b26f421741e481906304e45aaf9060e4016020604051808303816000875af115801561083c573d6000803e3d6000fd5b505050506040513d601f19601f820116820180604052508101906108609190610bd5565b95945050505050565b6040516001600160a01b03831660248201526044810182905261089990849063a9059cbb60e01b906064016103e1565b505050565b600080546001600160a01b038381166001600160a01b0319831681178455604051919092169283917f8be0079c531659141344cd1fd0a4f28419497f9722a3daafe3b4186f6b6457e09190a35050565b6000610943826040518060400160405280602081526020017f5361666545524332303a206c6f772d6c6576656c2063616c6c206661696c6564815250856001600160a01b03166109c39092919063ffffffff16565b90508051600014806109645750808060200190518101906109649190610bee565b6108995760405162461bcd60e51b815260206004820152602a60248201527f5361666545524332303a204552433230206f7065726174696f6e20646964206e6044820152691bdd081cdd58d8d9595960b21b60648201526084016102a8565b60606106d8848460008585600080866001600160a01b031685876040516109ea9190610dce565b60006040518083038185875af1925050503d8060008114610a27576040519150601f19603f3d011682016040523d82523d6000602084013e610a2c565b606091505b5091509150610a3d87838387610a48565b979650505050505050565b60608315610ab7578251600003610ab0576001600160a01b0385163b610ab05760405162461bcd60e51b815260206004820152601d60248201527f416464726573733a2063616c6c20746f206e6f6e2d636f6e747261637400000060448201526064016102a8565b50816106d8565b6106d88383815115610acc5781518083602001fd5b8060405162461bcd60e51b81526004016102a89190610dea565b80356001600160a01b0381168114610afd57600080fd5b919050565b80151581146102ba57600080fd5b60008060008060008060c08789031215610b2957600080fd5b610b3287610ae6565b9550610b4060208801610ae6565b94506040870135935060608701359250608087013562ffffff81168114610b6657600080fd5b915060a0870135610b7681610b02565b809150509295509295509295565b600060208284031215610b9657600080fd5b610b9f82610ae6565b9392505050565b634e487b7160e01b600052601160045260246000fd5b80820180821115610bcf57610bcf610ba6565b92915050565b600060208284031215610be757600080fd5b5051919050565b600060208284031215610c0057600080fd5b8151610b9f81610b02565b634e487b7160e01b600052604160045260246000fd5b634e487b7160e01b600052603260045260246000fd5b600060a0820187835260208781850152604060a08186015282885180855260c087019150838a01945060005b81811015610cad57855180516001600160a01b0390811685528682015181168786015285820151151586860152606091820151169084015294840194608090920191600101610c63565b50506001600160a01b03881660608701529350610cc992505050565b8260808301529695505050505050565b60006020808385031215610cec57600080fd5b825167ffffffffffffffff80821115610d0457600080fd5b818501915085601f830112610d1857600080fd5b815181811115610d2a57610d2a610c0b565b8060051b604051601f19603f83011681018181108582111715610d4f57610d4f610c0b565b604052918252848201925083810185019188831115610d6d57600080fd5b938501935b82851015610d8b57845184529385019392850192610d72565b98975050505050505050565b81810381811115610bcf57610bcf610ba6565b60005b83811015610dc5578181015183820152602001610dad565b50506000910152565b60008251610de0818460208701610daa565b9190910192915050565b6020815260008251806020840152610e09816040850160208701610daa565b601f01601f1916919091016040019291505056fea164736f6c6343000813000a",
  "devdoc": {
    "kind": "dev",
    "methods": {
      "owner()": {
        "details": "Returns the address of the current owner."
      },
      "renounceOwnership()": {
        "details": "Leaves the contract without owner. It will not be possible to call `onlyOwner` functions. Can only be called by the current owner. NOTE: Renouncing ownership will leave the contract without an owner, thereby disabling any functionality that is only available to the owner."
      },
      "transferOwnership(address)": {
        "details": "Transfers ownership of the contract to a new account (`newOwner`). Can only be called by the current owner."
      }
    },
    "version": 1
  },
  "userdoc": {
    "kind": "user",
    "methods": {},
    "version": 1
  },
  "storageLayout": {
    "storage": [
      {
        "astId": 423,
        "contract": "contracts/arbitrage/Arbitrageur.sol:Arbitrageur",
        "label": "_owner",
        "offset": 0,
        "slot": "0",
        "type": "t_address"
      }
    ],
    "types": {
      "t_address": {
        "encoding": "inplace",
        "label": "address",
        "numberOfBytes": "20"
      }
    }
  }
}