{
  "address": "0x8c33f0F216F60CeC3a117D1637d94A93BE2304C2",
  "abi": [
    {
      "inputs": [],
      "name": "NoProfit",
      "type": "error"
    },
    {
      "inputs": [],
      "name": "SwapFail",
      "type": "error"
    },
    {
      "anonymous": false,
      "inputs": [
        {
          "indexed": true,
          "internalType": "address",
          "name": "previousOwner",
          "type": "address"
        },
        {
          "indexed": true,
          "internalType": "address",
          "name": "newOwner",
          "type": "address"
        }
      ],
      "name": "OwnershipTransferred",
      "type": "event"
    },
    {
      "inputs": [],
      "name": "ONEINCH_AGGREGATION_ROUTERV_5",
      "outputs": [
        {
          "internalType": "address",
          "name": "",
          "type": "address"
        }
      ],
      "stateMutability": "view",
      "type": "function"
    },
    {
      "inputs": [],
      "name": "UNISWAP_V3_SWAP_ROUTER_02",
      "outputs": [
        {
          "internalType": "address",
          "name": "",
          "type": "address"
        }
      ],
      "stateMutability": "view",
      "type": "function"
    },
    {
      "inputs": [
        {
          "internalType": "address",
          "name": "tokenIn",
          "type": "address"
        },
        {
          "internalType": "address",
          "name": "tokenOut",
          "type": "address"
        },
        {
          "internalType": "uint256",
          "name": "amountIn",
          "type": "uint256"
        },
        {
          "internalType": "uint256",
          "name": "minProfit",
          "type": "uint256"
        },
        {
          "internalType": "uint24",
          "name": "uniswapV3Fee",
          "type": "uint24"
        },
        {
          "internalType": "bytes",
          "name": "_1inchData",
          "type": "bytes"
        }
      ],
      "name": "arbitrage1inchToUniswapV3",
      "outputs": [],
      "stateMutability": "nonpayable",
      "type": "function"
    },
    {
      "inputs": [],
      "name": "owner",
      "outputs": [
        {
          "internalType": "address",
          "name": "",
          "type": "address"
        }
      ],
      "stateMutability": "view",
      "type": "function"
    },
    {
      "inputs": [],
      "name": "renounceOwnership",
      "outputs": [],
      "stateMutability": "nonpayable",
      "type": "function"
    },
    {
      "inputs": [
        {
          "internalType": "address",
          "name": "newOwner",
          "type": "address"
        }
      ],
      "name": "transferOwnership",
      "outputs": [],
      "stateMutability": "nonpayable",
      "type": "function"
    },
    {
      "inputs": [
        {
          "internalType": "address",
          "name": "token",
          "type": "address"
        }
      ],
      "name": "withdrawAll",
      "outputs": [],
      "stateMutability": "nonpayable",
      "type": "function"
    }
  ],
  "transactionHash": "0x7a98d305d7f50395d2c6ea47e7a4bec8d1f12278ba34f366a5d7645d8fcfd0e1",
  "args": [],
  "numDeployments": 2,
  "solcInputHash": "1587069bb046ae33780eba572f0b0734",
  "bytecode": "0x608060405234801561001057600080fd5b5061001a3361001f565b61006f565b600080546001600160a01b038381166001600160a01b0319831681178455604051919092169283917f8be0079c531659141344cd1fd0a4f28419497f9722a3daafe3b4186f6b6457e09190a35050565b610bc58061007e6000396000f3fe608060405234801561001057600080fd5b506004361061007d5760003560e01c80639d1567bb1161005b5780639d1567bb146100c8578063f2fde38b146100e3578063fa09e630146100f6578063ff394eeb1461010957600080fd5b8063715018a6146100825780638da5cb5b1461008c57806397d871bb146100b5575b600080fd5b61008a610124565b005b6000546001600160a01b03165b6040516001600160a01b03909116815260200160405180910390f35b61008a6100c33660046109d4565b610138565b610099731111111254eeb25477b68fb85ed929f73a96058281565b61008a6100f1366004610a96565b610198565b61008a610104366004610a96565b610216565b610099732626664c2603336e57b271c5c0b26f421741e48181565b61012c6102ac565b6101366000610306565b565b61014d6001600160a01b038816333088610356565b600061015c88888886866103c7565b9050600061016c888a84886105d7565b9050610179878288610762565b61018d6001600160a01b038a163383610790565b505050505050505050565b6101a06102ac565b6001600160a01b03811661020a5760405162461bcd60e51b815260206004820152602660248201527f4f776e61626c653a206e6577206f776e657220697320746865207a65726f206160448201526564647265737360d01b60648201526084015b60405180910390fd5b61021381610306565b50565b61021e6102ac565b6102136102336000546001600160a01b031690565b6040516370a0823160e01b81523060048201526001600160a01b038416906370a0823190602401602060405180830381865afa158015610277573d6000803e3d6000fd5b505050506040513d601f19601f8201168201806040525081019061029b9190610ab8565b6001600160a01b0384169190610790565b6000546001600160a01b031633146101365760405162461bcd60e51b815260206004820181905260248201527f4f776e61626c653a2063616c6c6572206973206e6f7420746865206f776e65726044820152606401610201565b600080546001600160a01b038381166001600160a01b0319831681178455604051919092169283917f8be0079c531659141344cd1fd0a4f28419497f9722a3daafe3b4186f6b6457e09190a35050565b6040516001600160a01b03808516602483015283166044820152606481018290526103c19085906323b872dd60e01b906084015b60408051601f198184030181529190526020810180516001600160e01b03166001600160e01b0319909316929092179091526107c0565b50505050565b60405163095ea7b360e01b8152731111111254eeb25477b68fb85ed929f73a9605826004820152602481018490526000906001600160a01b0387169063095ea7b3906044016020604051808303816000875af115801561042b573d6000803e3d6000fd5b505050506040513d601f19601f8201168201806040525081019061044f9190610ad1565b506040516370a0823160e01b81523060048201526000906001600160a01b038716906370a0823190602401602060405180830381865afa158015610497573d6000803e3d6000fd5b505050506040513d601f19601f820116820180604052508101906104bb9190610ab8565b90506000731111111254eeb25477b68fb85ed929f73a9605826001600160a01b0316600086866040516104ef929190610af3565b60006040518083038185875af1925050503d806000811461052c576040519150601f19603f3d011682016040523d82523d6000602084013e610531565b606091505b5050905080610553576040516316e128d760e31b815260040160405180910390fd5b6040516370a0823160e01b81523060048201526000906001600160a01b038916906370a0823190602401602060405180830381865afa15801561059a573d6000803e3d6000fd5b505050506040513d601f19601f820116820180604052508101906105be9190610ab8565b90506105ca8382610b19565b9998505050505050505050565b60405163095ea7b360e01b8152732626664c2603336e57b271c5c0b26f421741e4816004820152602481018390526000906001600160a01b0386169063095ea7b3906044016020604051808303816000875af115801561063b573d6000803e3d6000fd5b505050506040513d601f19601f8201168201806040525081019061065f9190610ad1565b506040805160e0810182526001600160a01b0387811682528681166020830190815262ffffff8681168486019081523060608601908152608086018a8152600060a0880181815260c0890191825298516304e45aaf60e01b815297518716600489015294518616602488015291519092166044860152905183166064850152516084840152925160a4830152915190911660c4820152732626664c2603336e57b271c5c0b26f421741e481906304e45aaf9060e4016020604051808303816000875af1158015610733573d6000803e3d6000fd5b505050506040513d601f19601f820116820180604052508101906107579190610ab8565b90505b949350505050565b61076c8184610b32565b821161078b576040516371cd57f760e11b815260040160405180910390fd5b505050565b6040516001600160a01b03831660248201526044810182905261078b90849063a9059cbb60e01b9060640161038a565b6000610815826040518060400160405280602081526020017f5361666545524332303a206c6f772d6c6576656c2063616c6c206661696c6564815250856001600160a01b03166108959092919063ffffffff16565b90508051600014806108365750808060200190518101906108369190610ad1565b61078b5760405162461bcd60e51b815260206004820152602a60248201527f5361666545524332303a204552433230206f7065726174696f6e20646964206e6044820152691bdd081cdd58d8d9595960b21b6064820152608401610201565b606061075a848460008585600080866001600160a01b031685876040516108bc9190610b69565b60006040518083038185875af1925050503d80600081146108f9576040519150601f19603f3d011682016040523d82523d6000602084013e6108fe565b606091505b509150915061090f8783838761091a565b979650505050505050565b60608315610989578251600003610982576001600160a01b0385163b6109825760405162461bcd60e51b815260206004820152601d60248201527f416464726573733a2063616c6c20746f206e6f6e2d636f6e74726163740000006044820152606401610201565b508161075a565b61075a838381511561099e5781518083602001fd5b8060405162461bcd60e51b81526004016102019190610b85565b80356001600160a01b03811681146109cf57600080fd5b919050565b600080600080600080600060c0888a0312156109ef57600080fd5b6109f8886109b8565b9650610a06602089016109b8565b95506040880135945060608801359350608088013562ffffff81168114610a2c57600080fd5b925060a088013567ffffffffffffffff80821115610a4957600080fd5b818a0191508a601f830112610a5d57600080fd5b813581811115610a6c57600080fd5b8b6020828501011115610a7e57600080fd5b60208301945080935050505092959891949750929550565b600060208284031215610aa857600080fd5b610ab1826109b8565b9392505050565b600060208284031215610aca57600080fd5b5051919050565b600060208284031215610ae357600080fd5b81518015158114610ab157600080fd5b8183823760009101908152919050565b634e487b7160e01b600052601160045260246000fd5b81810381811115610b2c57610b2c610b03565b92915050565b80820180821115610b2c57610b2c610b03565b60005b83811015610b60578181015183820152602001610b48565b50506000910152565b60008251610b7b818460208701610b45565b9190910192915050565b6020815260008251806020840152610ba4816040850160208701610b45565b601f01601f1916919091016040019291505056fea164736f6c6343000813000a",
  "devdoc": {
    "kind": "dev",
    "methods": {
      "owner()": {
        "details": "Returns the address of the current owner."
      },
      "renounceOwnership()": {
        "details": "Leaves the contract without owner. It will not be possible to call `onlyOwner` functions. Can only be called by the current owner. NOTE: Renouncing ownership will leave the contract without an owner, thereby disabling any functionality that is only available to the owner."
      },
      "transferOwnership(address)": {
        "details": "Transfers ownership of the contract to a new account (`newOwner`). Can only be called by the current owner."
      }
    },
    "version": 1
  },
  "userdoc": {
    "kind": "user",
    "methods": {},
    "version": 1
  },
  "storageLayout": {
    "storage": [
      {
        "astId": 593,
        "contract": "contracts/arbitrage/ArbitrageurWithAggregator.sol:ArbitrageurWithAggregator",
        "label": "_owner",
        "offset": 0,
        "slot": "0",
        "type": "t_address"
      }
    ],
    "types": {
      "t_address": {
        "encoding": "inplace",
        "label": "address",
        "numberOfBytes": "20"
      }
    }
  }
}