{
  "address": "0x014A2c4fd6E8b135C374Da69c90D68dbc3524F7D",
  "abi": [
    {
      "inputs": [],
      "name": "NoProfit",
      "type": "error"
    },
    {
      "anonymous": false,
      "inputs": [
        {
          "indexed": true,
          "internalType": "address",
          "name": "previousOwner",
          "type": "address"
        },
        {
          "indexed": true,
          "internalType": "address",
          "name": "newOwner",
          "type": "address"
        }
      ],
      "name": "OwnershipTransferred",
      "type": "event"
    },
    {
      "inputs": [],
      "name": "PANCAKESWAP_V3_SWAP_ROUTER",
      "outputs": [
        {
          "internalType": "address",
          "name": "",
          "type": "address"
        }
      ],
      "stateMutability": "view",
      "type": "function"
    },
    {
      "inputs": [],
      "name": "UNISWAP_V3_SWAP_ROUTER_02",
      "outputs": [
        {
          "internalType": "address",
          "name": "",
          "type": "address"
        }
      ],
      "stateMutability": "view",
      "type": "function"
    },
    {
      "inputs": [],
      "name": "VELODROME_V2_POOL_FACTORY",
      "outputs": [
        {
          "internalType": "address",
          "name": "",
          "type": "address"
        }
      ],
      "stateMutability": "view",
      "type": "function"
    },
    {
      "inputs": [],
      "name": "VELODROME_V2_ROUTER",
      "outputs": [
        {
          "internalType": "address",
          "name": "",
          "type": "address"
        }
      ],
      "stateMutability": "view",
      "type": "function"
    },
    {
      "inputs": [
        {
          "internalType": "address",
          "name": "tokenIn",
          "type": "address"
        },
        {
          "internalType": "address",
          "name": "tokenOut",
          "type": "address"
        },
        {
          "internalType": "uint256",
          "name": "amountIn",
          "type": "uint256"
        },
        {
          "internalType": "uint256",
          "name": "minProfit",
          "type": "uint256"
        },
        {
          "internalType": "uint24",
          "name": "uniswapV3Fee",
          "type": "uint24"
        },
        {
          "internalType": "uint24",
          "name": "pancakeSwapV3Fee",
          "type": "uint24"
        }
      ],
      "name": "arbitragePancakeSwapV3toUniswapV3",
      "outputs": [],
      "stateMutability": "nonpayable",
      "type": "function"
    },
    {
      "inputs": [
        {
          "internalType": "address",
          "name": "tokenIn",
          "type": "address"
        },
        {
          "internalType": "address",
          "name": "tokenOut",
          "type": "address"
        },
        {
          "internalType": "uint256",
          "name": "amountIn",
          "type": "uint256"
        },
        {
          "internalType": "uint256",
          "name": "minProfit",
          "type": "uint256"
        },
        {
          "internalType": "uint24",
          "name": "uniswapV3Fee",
          "type": "uint24"
        },
        {
          "internalType": "uint24",
          "name": "pancakeSwapV3Fee",
          "type": "uint24"
        }
      ],
      "name": "arbitrageUniswapV3toPancakeSwapV3",
      "outputs": [],
      "stateMutability": "nonpayable",
      "type": "function"
    },
    {
      "inputs": [
        {
          "internalType": "address",
          "name": "tokenIn",
          "type": "address"
        },
        {
          "internalType": "address",
          "name": "tokenOut",
          "type": "address"
        },
        {
          "internalType": "uint256",
          "name": "amountIn",
          "type": "uint256"
        },
        {
          "internalType": "uint256",
          "name": "minProfit",
          "type": "uint256"
        },
        {
          "internalType": "uint24",
          "name": "uniswapV3Fee",
          "type": "uint24"
        },
        {
          "internalType": "bool",
          "name": "velodromeV2Stable",
          "type": "bool"
        }
      ],
      "name": "arbitrageUniswapV3toVelodromeV2",
      "outputs": [],
      "stateMutability": "nonpayable",
      "type": "function"
    },
    {
      "inputs": [
        {
          "internalType": "address",
          "name": "tokenIn",
          "type": "address"
        },
        {
          "internalType": "address",
          "name": "tokenOut",
          "type": "address"
        },
        {
          "internalType": "uint256",
          "name": "amountIn",
          "type": "uint256"
        },
        {
          "internalType": "uint256",
          "name": "minProfit",
          "type": "uint256"
        },
        {
          "internalType": "uint24",
          "name": "uniswapV3Fee",
          "type": "uint24"
        },
        {
          "internalType": "bool",
          "name": "velodromeV2Stable",
          "type": "bool"
        }
      ],
      "name": "arbitrageVelodromeV2toUniswapV3",
      "outputs": [],
      "stateMutability": "nonpayable",
      "type": "function"
    },
    {
      "inputs": [],
      "name": "owner",
      "outputs": [
        {
          "internalType": "address",
          "name": "",
          "type": "address"
        }
      ],
      "stateMutability": "view",
      "type": "function"
    },
    {
      "inputs": [],
      "name": "renounceOwnership",
      "outputs": [],
      "stateMutability": "nonpayable",
      "type": "function"
    },
    {
      "inputs": [
        {
          "internalType": "address",
          "name": "newOwner",
          "type": "address"
        }
      ],
      "name": "transferOwnership",
      "outputs": [],
      "stateMutability": "nonpayable",
      "type": "function"
    },
    {
      "inputs": [
        {
          "internalType": "address",
          "name": "token",
          "type": "address"
        }
      ],
      "name": "withdrawAll",
      "outputs": [],
      "stateMutability": "nonpayable",
      "type": "function"
    }
  ],
  "transactionHash": "0x5856628b682eaf1a3678c392dd998bf2f69931d18beb069d22301b128f26f125",
  "args": [],
  "numDeployments": 2,
  "solcInputHash": "962a88d5205d1d0204ca26d244613215",
  "bytecode": "0x608060405234801561001057600080fd5b5061001a3361001f565b61006f565b600080546001600160a01b038381166001600160a01b0319831681178455604051919092169283917f8be0079c531659141344cd1fd0a4f28419497f9722a3daafe3b4186f6b6457e09190a35050565b6110278061007e6000396000f3fe608060405234801561001057600080fd5b50600436106100b45760003560e01c80638da5cb5b116100715780638da5cb5b1461014e578063ea182fca1461015f578063eff937af1461017a578063f2fde38b1461018d578063fa09e630146101a0578063ff394eeb146101b357600080fd5b806314b44482146100b9578063274640b7146100ce57806340024da914610105578063715018a6146101205780637744ac2a146101285780637cedde611461013b575b600080fd5b6100cc6100c7366004610cb1565b6101ce565b005b6100e9731b81d678ffb9c0263b24a97847620c99d213eb1481565b6040516001600160a01b03909116815260200160405180910390f35b6100e973420dd381b31aef6683db6b902084cb0ffece40da81565b6100cc61022c565b6100cc610136366004610d1b565b610240565b6100cc610149366004610cb1565b610263565b6000546001600160a01b03166100e9565b6100e973cf77a3ba9a5ca399b7c97c74d54e5b1beb874e4381565b6100cc610188366004610d1b565b610296565b6100cc61019b366004610d81565b6102c9565b6100cc6101ae366004610d81565b610347565b6100e9732626664c2603336e57b271c5c0b26f421741e48181565b6101e36001600160a01b0387163330876103dd565b60006101f18787878561044e565b9050600061020187898487610653565b905061020e8682876107dd565b6102226001600160a01b038916338361080b565b5050505050505050565b61023461083b565b61023e6000610895565b565b6102556001600160a01b0387163330876103dd565b60006101f1878787856108e5565b6102786001600160a01b0387163330876103dd565b600061028687878786610653565b905060006102018789848661044e565b6102ab6001600160a01b0387163330876103dd565b60006102b987878786610653565b90506000610201878984866108e5565b6102d161083b565b6001600160a01b03811661033b5760405162461bcd60e51b815260206004820152602660248201527f4f776e61626c653a206e6577206f776e657220697320746865207a65726f206160448201526564647265737360d01b60648201526084015b60405180910390fd5b61034481610895565b50565b61034f61083b565b6103446103646000546001600160a01b031690565b6040516370a0823160e01b81523060048201526001600160a01b038416906370a0823190602401602060405180830381865afa1580156103a8573d6000803e3d6000fd5b505050506040513d601f19601f820116820180604052508101906103cc9190610da3565b6001600160a01b038416919061080b565b6040516001600160a01b03808516602483015283166044820152606481018290526104489085906323b872dd60e01b906084015b60408051601f198184030181529190526020810180516001600160e01b03166001600160e01b031990931692909217909152610a7c565b50505050565b60405163095ea7b360e01b815273cf77a3ba9a5ca399b7c97c74d54e5b1beb874e436004820152602481018390526000906001600160a01b0386169063095ea7b3906044016020604051808303816000875af11580156104b2573d6000803e3d6000fd5b505050506040513d601f19601f820116820180604052508101906104d69190610dbc565b50604080516001808252818301909252600091816020015b6040805160808101825260008082526020808301829052928201819052606082015282526000199092019101816104ee5790505090506040518060800160405280876001600160a01b03168152602001866001600160a01b03168152602001841515815260200173420dd381b31aef6683db6b902084cb0ffece40da6001600160a01b03168152508160008151811061058957610589610def565b602090810291909101015260405163cac88ea960e01b815260009073cf77a3ba9a5ca399b7c97c74d54e5b1beb874e439063cac88ea9906105d69088908590879030904290600401610e05565b6000604051808303816000875af11580156105f5573d6000803e3d6000fd5b505050506040513d6000823e601f3d908101601f1916820160405261061d9190810190610ea7565b9050806001825161062e9190610f7b565b8151811061063e5761063e610def565b6020026020010151925050505b949350505050565b60405163095ea7b360e01b8152732626664c2603336e57b271c5c0b26f421741e4816004820152602481018390526000906001600160a01b0386169063095ea7b3906044016020604051808303816000875af11580156106b7573d6000803e3d6000fd5b505050506040513d601f19601f820116820180604052508101906106db9190610dbc565b506040805160e0810182526001600160a01b0387811682528681166020830190815262ffffff8681168486019081523060608601908152608086018a8152600060a0880181815260c0890191825298516304e45aaf60e01b815297518716600489015294518616602488015291519092166044860152905183166064850152516084840152925160a4830152915190911660c4820152732626664c2603336e57b271c5c0b26f421741e481906304e45aaf9060e4015b6020604051808303816000875af11580156107b0573d6000803e3d6000fd5b505050506040513d601f19601f820116820180604052508101906107d49190610da3565b95945050505050565b6107e78184610f94565b8211610806576040516371cd57f760e11b815260040160405180910390fd5b505050565b6040516001600160a01b03831660248201526044810182905261080690849063a9059cbb60e01b90606401610411565b6000546001600160a01b0316331461023e5760405162461bcd60e51b815260206004820181905260248201527f4f776e61626c653a2063616c6c6572206973206e6f7420746865206f776e65726044820152606401610332565b600080546001600160a01b038381166001600160a01b0319831681178455604051919092169283917f8be0079c531659141344cd1fd0a4f28419497f9722a3daafe3b4186f6b6457e09190a35050565b60405163095ea7b360e01b8152731b81d678ffb9c0263b24a97847620c99d213eb146004820152602481018390526000906001600160a01b0386169063095ea7b3906044016020604051808303816000875af1158015610949573d6000803e3d6000fd5b505050506040513d601f19601f8201168201806040525081019061096d9190610dbc565b50731b81d678ffb9c0263b24a97847620c99d213eb146001600160a01b031663414bf389604051806101000160405280886001600160a01b03168152602001876001600160a01b031681526020018562ffffff168152602001306001600160a01b031681526020014260016109e29190610f94565b8152602080820188905260006040808401829052606093840191909152805160e086811b6001600160e01b031916825285516001600160a01b03908116600484015293860151841660248301529185015162ffffff16604482015292840151821660648401526080840151608484015260a084015160a484015260c084015160c4840152929092015190911660e482015261010401610791565b6000610ad1826040518060400160405280602081526020017f5361666545524332303a206c6f772d6c6576656c2063616c6c206661696c6564815250856001600160a01b0316610b519092919063ffffffff16565b9050805160001480610af2575080806020019051810190610af29190610dbc565b6108065760405162461bcd60e51b815260206004820152602a60248201527f5361666545524332303a204552433230206f7065726174696f6e20646964206e6044820152691bdd081cdd58d8d9595960b21b6064820152608401610332565b606061064b848460008585600080866001600160a01b03168587604051610b789190610fcb565b60006040518083038185875af1925050503d8060008114610bb5576040519150601f19603f3d011682016040523d82523d6000602084013e610bba565b606091505b5091509150610bcb87838387610bd6565b979650505050505050565b60608315610c45578251600003610c3e576001600160a01b0385163b610c3e5760405162461bcd60e51b815260206004820152601d60248201527f416464726573733a2063616c6c20746f206e6f6e2d636f6e74726163740000006044820152606401610332565b508161064b565b61064b8383815115610c5a5781518083602001fd5b8060405162461bcd60e51b81526004016103329190610fe7565b80356001600160a01b0381168114610c8b57600080fd5b919050565b803562ffffff81168114610c8b57600080fd5b801515811461034457600080fd5b60008060008060008060c08789031215610cca57600080fd5b610cd387610c74565b9550610ce160208801610c74565b94506040870135935060608701359250610cfd60808801610c90565b915060a0870135610d0d81610ca3565b809150509295509295509295565b60008060008060008060c08789031215610d3457600080fd5b610d3d87610c74565b9550610d4b60208801610c74565b94506040870135935060608701359250610d6760808801610c90565b9150610d7560a08801610c90565b90509295509295509295565b600060208284031215610d9357600080fd5b610d9c82610c74565b9392505050565b600060208284031215610db557600080fd5b5051919050565b600060208284031215610dce57600080fd5b8151610d9c81610ca3565b634e487b7160e01b600052604160045260246000fd5b634e487b7160e01b600052603260045260246000fd5b600060a0820187835260208781850152604060a08186015282885180855260c087019150838a01945060005b81811015610e7b57855180516001600160a01b0390811685528682015181168786015285820151151586860152606091820151169084015294840194608090920191600101610e31565b50506001600160a01b03881660608701529350610e9792505050565b8260808301529695505050505050565b60006020808385031215610eba57600080fd5b825167ffffffffffffffff80821115610ed257600080fd5b818501915085601f830112610ee657600080fd5b815181811115610ef857610ef8610dd9565b8060051b604051601f19603f83011681018181108582111715610f1d57610f1d610dd9565b604052918252848201925083810185019188831115610f3b57600080fd5b938501935b82851015610f5957845184529385019392850192610f40565b98975050505050505050565b634e487b7160e01b600052601160045260246000fd5b81810381811115610f8e57610f8e610f65565b92915050565b80820180821115610f8e57610f8e610f65565b60005b83811015610fc2578181015183820152602001610faa565b50506000910152565b60008251610fdd818460208701610fa7565b9190910192915050565b6020815260008251806020840152611006816040850160208701610fa7565b601f01601f1916919091016040019291505056fea164736f6c6343000813000a",
  "devdoc": {
    "kind": "dev",
    "methods": {
      "owner()": {
        "details": "Returns the address of the current owner."
      },
      "renounceOwnership()": {
        "details": "Leaves the contract without owner. It will not be possible to call `onlyOwner` functions. Can only be called by the current owner. NOTE: Renouncing ownership will leave the contract without an owner, thereby disabling any functionality that is only available to the owner."
      },
      "transferOwnership(address)": {
        "details": "Transfers ownership of the contract to a new account (`newOwner`). Can only be called by the current owner."
      }
    },
    "version": 1
  },
  "userdoc": {
    "kind": "user",
    "methods": {},
    "version": 1
  },
  "storageLayout": {
    "storage": [
      {
        "astId": 628,
        "contract": "contracts/arbitrage/Arbitrageur.sol:Arbitrageur",
        "label": "_owner",
        "offset": 0,
        "slot": "0",
        "type": "t_address"
      }
    ],
    "types": {
      "t_address": {
        "encoding": "inplace",
        "label": "address",
        "numberOfBytes": "20"
      }
    }
  }
}